{
  "address": "0x880563B3DC3058004Ea0bE536ea9f112936F447c",
  "abi": [
    {
      "inputs": [
        {
          "internalType": "string[]",
          "name": "_params",
          "type": "string[]"
        },
        {
          "internalType": "uint256[]",
          "name": "_prices",
          "type": "uint256[]"
        },
        {
          "internalType": "address",
          "name": "_escrow",
          "type": "address"
        },
        {
          "internalType": "uint256[]",
          "name": "slabAmounts_",
          "type": "uint256[]"
        },
        {
          "internalType": "uint256[]",
          "name": "slabPercents_",
          "type": "uint256[]"
        },
        {
          "internalType": "address",
          "name": "_stakedToken",
          "type": "address"
        }
      ],
      "stateMutability": "nonpayable",
      "type": "constructor"
    },
    {
      "anonymous": false,
      "inputs": [
        {
          "indexed": true,
          "internalType": "address",
          "name": "owner",
          "type": "address"
        }
      ],
      "name": "ChangeOwner",
      "type": "event"
    },
    {
      "anonymous": false,
      "inputs": [
        {
          "indexed": false,
          "internalType": "string",
          "name": "param",
          "type": "string"
        }
      ],
      "name": "DeletedParameter",
      "type": "event"
    },
    {
      "anonymous": false,
      "inputs": [
        {
          "indexed": false,
          "internalType": "address[]",
          "name": "managers",
          "type": "address[]"
        }
      ],
      "name": "RemoveManagers",
      "type": "event"
    },
    {
      "anonymous": false,
      "inputs": [
        {
          "indexed": false,
          "internalType": "address[]",
          "name": "managers",
          "type": "address[]"
        }
      ],
      "name": "SetManagers",
      "type": "event"
    },
    {
      "anonymous": false,
      "inputs": [
        {
          "indexed": true,
          "internalType": "uint256",
          "name": "price",
          "type": "uint256"
        },
        {
          "indexed": false,
          "internalType": "string",
          "name": "param",
          "type": "string"
        }
      ],
      "name": "SubscriptionParameter",
      "type": "event"
    },
    {
      "anonymous": false,
      "inputs": [
        {
          "indexed": true,
          "internalType": "address",
          "name": "tokenAddress",
          "type": "address"
        },
        {
          "indexed": true,
          "internalType": "uint128",
          "name": "decimals",
          "type": "uint128"
        },
        {
          "indexed": true,
          "internalType": "address",
          "name": "priceFeedAddress",
          "type": "address"
        },
        {
          "indexed": false,
          "internalType": "string",
          "name": "symbol",
          "type": "string"
        },
        {
          "indexed": false,
          "internalType": "bool",
          "name": "isChainLinkFeed",
          "type": "bool"
        },
        {
          "indexed": false,
          "internalType": "uint128",
          "name": "priceFeedPrecision",
          "type": "uint128"
        }
      ],
      "name": "TokenAdded",
      "type": "event"
    },
    {
      "anonymous": false,
      "inputs": [
        {
          "indexed": true,
          "internalType": "address",
          "name": "tokenAddress",
          "type": "address"
        }
      ],
      "name": "TokenRemoved",
      "type": "event"
    },
    {
      "anonymous": false,
      "inputs": [
        {
          "indexed": true,
          "internalType": "address",
          "name": "_escrow",
          "type": "address"
        }
      ],
      "name": "UpdateEscrow",
      "type": "event"
    },
    {
      "inputs": [],
      "name": "MAX_NUMBER",
      "outputs": [
        {
          "internalType": "uint256",
          "name": "",
          "type": "uint256"
        }
      ],
      "stateMutability": "view",
      "type": "function"
    },
    {
      "inputs": [
        {
          "internalType": "address",
          "name": "",
          "type": "address"
        }
      ],
      "name": "acceptedTokens",
      "outputs": [
        {
          "internalType": "string",
          "name": "symbol",
          "type": "string"
        },
        {
          "internalType": "uint128",
          "name": "decimals",
          "type": "uint128"
        },
        {
          "internalType": "address",
          "name": "tokenAddress",
          "type": "address"
        },
        {
          "internalType": "bool",
          "name": "accepted",
          "type": "bool"
        },
        {
          "internalType": "bool",
          "name": "isChainLinkFeed",
          "type": "bool"
        },
        {
          "internalType": "address",
          "name": "priceFeedAddress",
          "type": "address"
        },
        {
          "internalType": "uint128",
          "name": "priceFeedPrecision",
          "type": "uint128"
        }
      ],
      "stateMutability": "view",
      "type": "function"
    },
    {
      "inputs": [
        {
          "internalType": "string[]",
          "name": "_symbols",
          "type": "string[]"
        },
        {
          "internalType": "address[]",
          "name": "_tokens",
          "type": "address[]"
        },
        {
          "internalType": "uint128[]",
          "name": "_decimals",
          "type": "uint128[]"
        },
        {
          "internalType": "bool[]",
          "name": "isChainLinkFeed_",
          "type": "bool[]"
        },
        {
          "internalType": "address[]",
          "name": "priceFeedAddress_",
          "type": "address[]"
        },
        {
          "internalType": "uint128[]",
          "name": "priceFeedPrecision_",
          "type": "uint128[]"
        }
      ],
      "name": "addNewTokens",
      "outputs": [],
      "stateMutability": "nonpayable",
      "type": "function"
    },
    {
      "inputs": [
        {
          "internalType": "string",
          "name": "",
          "type": "string"
        }
      ],
      "name": "availableParams",
      "outputs": [
        {
          "internalType": "bool",
          "name": "",
          "type": "bool"
        }
      ],
      "stateMutability": "view",
      "type": "function"
    },
    {
      "inputs": [
        {
          "internalType": "address",
          "name": "o",
          "type": "address"
        }
      ],
      "name": "changeOwner",
      "outputs": [],
      "stateMutability": "nonpayable",
      "type": "function"
    },
    {
      "inputs": [
        {
          "internalType": "uint128",
          "name": "p",
          "type": "uint128"
        }
      ],
      "name": "changeUsdPrecision",
      "outputs": [],
      "stateMutability": "nonpayable",
      "type": "function"
    },
    {
      "inputs": [
        {
          "internalType": "string[]",
          "name": "_params",
          "type": "string[]"
        }
      ],
      "name": "deleteParams",
      "outputs": [],
      "stateMutability": "nonpayable",
      "type": "function"
    },
    {
      "inputs": [],
      "name": "disableDiscounts",
      "outputs": [],
      "stateMutability": "nonpayable",
      "type": "function"
    },
    {
      "inputs": [],
      "name": "discountPercents",
      "outputs": [
        {
          "internalType": "uint256[]",
          "name": "",
          "type": "uint256[]"
        }
      ],
      "stateMutability": "view",
      "type": "function"
    },
    {
      "inputs": [
        {
          "internalType": "uint256",
          "name": "",
          "type": "uint256"
        }
      ],
      "name": "discountSlabs",
      "outputs": [
        {
          "internalType": "uint256",
          "name": "amount",
          "type": "uint256"
        },
        {
          "internalType": "uint256",
          "name": "percent",
          "type": "uint256"
        }
      ],
      "stateMutability": "view",
      "type": "function"
    },
    {
      "inputs": [],
      "name": "discountsEnabled",
      "outputs": [
        {
          "internalType": "bool",
          "name": "",
          "type": "bool"
        }
      ],
      "stateMutability": "view",
      "type": "function"
    },
    {
      "inputs": [
        {
          "internalType": "address",
          "name": "s",
          "type": "address"
        }
      ],
      "name": "enableDiscounts",
      "outputs": [],
      "stateMutability": "nonpayable",
      "type": "function"
    },
    {
      "inputs": [],
      "name": "escrow",
      "outputs": [
        {
          "internalType": "address",
          "name": "",
          "type": "address"
        }
      ],
      "stateMutability": "view",
      "type": "function"
    },
    {
      "inputs": [],
      "name": "getManagers",
      "outputs": [
        {
          "internalType": "address[]",
          "name": "",
          "type": "address[]"
        }
      ],
      "stateMutability": "view",
      "type": "function"
    },
    {
      "inputs": [],
      "name": "governanceAddress",
      "outputs": [
        {
          "internalType": "address",
          "name": "",
          "type": "address"
        }
      ],
      "stateMutability": "view",
      "type": "function"
    },
    {
      "inputs": [
        {
          "internalType": "address",
          "name": "",
          "type": "address"
        }
      ],
      "name": "isAcceptedToken",
      "outputs": [
        {
          "internalType": "bool",
          "name": "",
          "type": "bool"
        }
      ],
      "stateMutability": "view",
      "type": "function"
    },
    {
      "inputs": [
        {
          "internalType": "uint256[]",
          "name": "_nnn",
          "type": "uint256[]"
        }
      ],
      "name": "isIncremental",
      "outputs": [
        {
          "internalType": "bool",
          "name": "",
          "type": "bool"
        }
      ],
      "stateMutability": "pure",
      "type": "function"
    },
    {
      "inputs": [
        {
          "internalType": "address",
          "name": "addr",
          "type": "address"
        }
      ],
      "name": "isManager",
      "outputs": [
        {
          "internalType": "bool",
          "name": "",
          "type": "bool"
        }
      ],
      "stateMutability": "view",
      "type": "function"
    },
    {
      "inputs": [
        {
          "internalType": "address",
          "name": "",
          "type": "address"
        }
      ],
      "name": "managerByAddress",
      "outputs": [
        {
          "internalType": "bool",
          "name": "",
          "type": "bool"
        }
      ],
      "stateMutability": "view",
      "type": "function"
    },
    {
      "inputs": [
        {
          "internalType": "uint256",
          "name": "",
          "type": "uint256"
        }
      ],
      "name": "managers",
      "outputs": [
        {
          "internalType": "address",
          "name": "",
          "type": "address"
        }
      ],
      "stateMutability": "view",
      "type": "function"
    },
    {
      "inputs": [],
      "name": "owner",
      "outputs": [
        {
          "internalType": "address",
          "name": "",
          "type": "address"
        }
      ],
      "stateMutability": "view",
      "type": "function"
    },
    {
      "inputs": [
        {
          "internalType": "uint256",
          "name": "",
          "type": "uint256"
        }
      ],
      "name": "params",
      "outputs": [
        {
          "internalType": "string",
          "name": "",
          "type": "string"
        }
      ],
      "stateMutability": "view",
      "type": "function"
    },
    {
      "inputs": [
        {
          "internalType": "string",
          "name": "",
          "type": "string"
        }
      ],
      "name": "priceData",
      "outputs": [
        {
          "internalType": "uint256",
          "name": "",
          "type": "uint256"
        }
      ],
      "stateMutability": "view",
      "type": "function"
    },
    {
      "inputs": [
        {
          "internalType": "address[]",
          "name": "m",
          "type": "address[]"
        }
      ],
      "name": "removeManagers",
      "outputs": [],
      "stateMutability": "nonpayable",
      "type": "function"
    },
    {
      "inputs": [
        {
          "internalType": "address[]",
          "name": "t",
          "type": "address[]"
        }
      ],
      "name": "removeTokens",
      "outputs": [],
      "stateMutability": "nonpayable",
      "type": "function"
    },
    {
      "inputs": [
        {
          "internalType": "address",
          "name": "g",
          "type": "address"
        }
      ],
      "name": "setGovernanceAddress",
      "outputs": [],
      "stateMutability": "nonpayable",
      "type": "function"
    },
    {
      "inputs": [
        {
          "internalType": "address[]",
          "name": "m",
          "type": "address[]"
        }
      ],
      "name": "setManagers",
      "outputs": [],
      "stateMutability": "nonpayable",
      "type": "function"
    },
    {
      "inputs": [],
      "name": "slabs",
      "outputs": [
        {
          "internalType": "uint256[]",
          "name": "",
          "type": "uint256[]"
        }
      ],
      "stateMutability": "view",
      "type": "function"
    },
    {
      "inputs": [],
      "name": "stakedToken",
      "outputs": [
        {
          "internalType": "contract IERC20",
          "name": "",
          "type": "address"
        }
      ],
      "stateMutability": "view",
      "type": "function"
    },
    {
      "inputs": [],
      "name": "stakingManager",
      "outputs": [
        {
          "internalType": "contract IStaking",
          "name": "",
          "type": "address"
        }
      ],
      "stateMutability": "view",
      "type": "function"
    },
    {
      "inputs": [
        {
          "internalType": "uint256",
          "name": "",
          "type": "uint256"
        }
      ],
      "name": "tokens",
      "outputs": [
        {
          "internalType": "address",
          "name": "",
          "type": "address"
        }
      ],
      "stateMutability": "view",
      "type": "function"
    },
    {
      "inputs": [
        {
          "internalType": "uint256[]",
          "name": "slabAmounts_",
          "type": "uint256[]"
        },
        {
          "internalType": "uint256[]",
          "name": "slabPercents_",
          "type": "uint256[]"
        }
      ],
      "name": "updateDiscountSlabs",
      "outputs": [],
      "stateMutability": "nonpayable",
      "type": "function"
    },
    {
      "inputs": [
        {
          "internalType": "address",
          "name": "_escrow",
          "type": "address"
        }
      ],
      "name": "updateEscrow",
      "outputs": [],
      "stateMutability": "nonpayable",
      "type": "function"
    },
    {
      "inputs": [
        {
          "internalType": "string[]",
          "name": "_params",
          "type": "string[]"
        },
        {
          "internalType": "uint256[]",
          "name": "_prices",
          "type": "uint256[]"
        }
      ],
      "name": "updateParams",
      "outputs": [],
      "stateMutability": "nonpayable",
      "type": "function"
    },
    {
      "inputs": [
        {
          "internalType": "address",
          "name": "s",
          "type": "address"
        }
      ],
      "name": "updateStakedToken",
      "outputs": [],
      "stateMutability": "nonpayable",
      "type": "function"
    },
    {
      "inputs": [],
      "name": "usdPricePrecision",
      "outputs": [
        {
          "internalType": "uint128",
          "name": "",
          "type": "uint128"
        }
      ],
      "stateMutability": "view",
      "type": "function"
    }
  ],
  "transactionHash": "0x00273dcb3f7d2f2723e5377988ddb54500ded55c0f95eb5423d12e4aff6a5bba",
  "args": [
    [
      "PACKAGE_PRO_FIRST",
      "PACKAGE_PRO",
      "PACKAGE_STARTER"
    ],
    [
      "20000000000000000000",
      "15000000000000000000",
      "0"
    ],
    "0xF7ec286A19CE6fe80c6A0d5CEb9528d9a87c9557",
    [],
    [],
    "0xF7ec286A19CE6fe80c6A0d5CEb9528d9a87c9557"
  ],
  "numDeployments": 1,
  "solcInputHash": "2bccb0115087af473cc23980c7a1bfdd",
  "bytecode": "0x60806040523480156200001157600080fd5b506040516200753338038062007533833981810160405281019062000037919062000b2e565b336000806101000a81548173ffffffffffffffffffffffffffffffffffffffff021916908373ffffffffffffffffffffffffffffffffffffffff1602179055508451865114620000be576040517f08c379a0000000000000000000000000000000000000000000000000000000008152600401620000b59062000ca7565b60405180910390fd5b600073ffffffffffffffffffffffffffffffffffffffff168473ffffffffffffffffffffffffffffffffffffffff160362000130576040517f08c379a0000000000000000000000000000000000000000000000000000000008152600401620001279062000d19565b60405180910390fd5b600073ffffffffffffffffffffffffffffffffffffffff168173ffffffffffffffffffffffffffffffffffffffff1603620001a2576040517f08c379a0000000000000000000000000000000000000000000000000000000008152600401620001999062000d8b565b60405180910390fd5b8151835114620001e9576040517f08c379a0000000000000000000000000000000000000000000000000000000008152600401620001e09062000ca7565b60405180910390fd5b600086511162000230576040517f08c379a0000000000000000000000000000000000000000000000000000000008152600401620002279062000dfd565b60405180910390fd5b600085511162000277576040517f08c379a00000000000000000000000000000000000000000000000000000000081526004016200026e9062000e6f565b60405180910390fd5b603283511115620002bf576040517f08c379a0000000000000000000000000000000000000000000000000000000008152600401620002b69062000ee1565b60405180910390fd5b60328251111562000307576040517f08c379a0000000000000000000000000000000000000000000000000000000008152600401620002fe9062000f53565b60405180910390fd5b60005b8651811015620004d05760058782815181106200032c576200032b62000f75565b5b602002602001015160405162000343919062000ff1565b908152602001604051809103902060009054906101000a900460ff1615620003a2576040517f08c379a000000000000000000000000000000000000000000000000000000000815260040162000399906200105a565b60405180910390fd5b6000878281518110620003ba57620003b962000f75565b5b602002602001015190506000878381518110620003dc57620003db62000f75565b5b6020026020010151905080600483604051620003f9919062000ff1565b90815260200160405180910390208190555060016005836040516200041f919062000ff1565b908152602001604051809103902060006101000a81548160ff0219169083151502179055506006829080600181540180825580915050600190039060005260206000200160009091909190915090816200047a9190620012b2565b50807f870d40c7d90f6666271874980d33eb5ab9a892f5cf72dbbff1f17914cf9f0b4083604051620004ad9190620013da565b60405180910390a25050620004c8816200071c60201b60201c565b90506200030a565b5080600960006101000a81548173ffffffffffffffffffffffffffffffffffffffff021916908373ffffffffffffffffffffffffffffffffffffffff16021790555083600760006101000a81548173ffffffffffffffffffffffffffffffffffffffff021916908373ffffffffffffffffffffffffffffffffffffffff16021790555060005b8351811015620006d557600084828151811062000578576200057762000f75565b5b602002602001015111620005c3576040517f08c379a0000000000000000000000000000000000000000000000000000000008152600401620005ba9062001474565b60405180910390fd5b6000838281518110620005db57620005da62000f75565b5b60200260200101511162000626576040517f08c379a00000000000000000000000000000000000000000000000000000000081526004016200061d906200150c565b60405180910390fd5b6000604051806040016040528086848151811062000649576200064862000f75565b5b602002602001015181526020018584815181106200066c576200066b62000f75565b5b60200260200101518152509050600a8190806001815401808255809150506001900390600052602060002090600202016000909190919091506000820151816000015560208201518160010155505050620006cd816200071c60201b60201c565b905062000556565b506012600e60006101000a8154816fffffffffffffffffffffffffffffffff02191690836fffffffffffffffffffffffffffffffff1602179055505050505050506200152e565b6000600182019050919050565b6000604051905090565b600080fd5b600080fd5b600080fd5b6000601f19601f8301169050919050565b7f4e487b7100000000000000000000000000000000000000000000000000000000600052604160045260246000fd5b6200078d8262000742565b810181811067ffffffffffffffff82111715620007af57620007ae62000753565b5b80604052505050565b6000620007c462000729565b9050620007d2828262000782565b919050565b600067ffffffffffffffff821115620007f557620007f462000753565b5b602082029050602081019050919050565b600080fd5b600080fd5b600067ffffffffffffffff8211156200082e576200082d62000753565b5b620008398262000742565b9050602081019050919050565b60005b838110156200086657808201518184015260208101905062000849565b60008484015250505050565b600062000889620008838462000810565b620007b8565b905082815260208101848484011115620008a857620008a76200080b565b5b620008b584828562000846565b509392505050565b600082601f830112620008d557620008d46200073d565b5b8151620008e784826020860162000872565b91505092915050565b6000620009076200090184620007d7565b620007b8565b905080838252602082019050602084028301858111156200092d576200092c62000806565b5b835b818110156200097b57805167ffffffffffffffff8111156200095657620009556200073d565b5b808601620009658982620008bd565b855260208501945050506020810190506200092f565b5050509392505050565b600082601f8301126200099d576200099c6200073d565b5b8151620009af848260208601620008f0565b91505092915050565b600067ffffffffffffffff821115620009d657620009d562000753565b5b602082029050602081019050919050565b6000819050919050565b620009fc81620009e7565b811462000a0857600080fd5b50565b60008151905062000a1c81620009f1565b92915050565b600062000a3962000a3384620009b8565b620007b8565b9050808382526020820190506020840283018581111562000a5f5762000a5e62000806565b5b835b8181101562000a8c578062000a77888262000a0b565b84526020840193505060208101905062000a61565b5050509392505050565b600082601f83011262000aae5762000aad6200073d565b5b815162000ac084826020860162000a22565b91505092915050565b600073ffffffffffffffffffffffffffffffffffffffff82169050919050565b600062000af68262000ac9565b9050919050565b62000b088162000ae9565b811462000b1457600080fd5b50565b60008151905062000b288162000afd565b92915050565b60008060008060008060c0878903121562000b4e5762000b4d62000733565b5b600087015167ffffffffffffffff81111562000b6f5762000b6e62000738565b5b62000b7d89828a0162000985565b965050602087015167ffffffffffffffff81111562000ba15762000ba062000738565b5b62000baf89828a0162000a96565b955050604062000bc289828a0162000b17565b945050606087015167ffffffffffffffff81111562000be65762000be562000738565b5b62000bf489828a0162000a96565b935050608087015167ffffffffffffffff81111562000c185762000c1762000738565b5b62000c2689828a0162000a96565b92505060a062000c3989828a0162000b17565b9150509295509295509295565b600082825260208201905092915050565b7f756e657175616c206c656e677468206f66206172726179000000000000000000600082015250565b600062000c8f60178362000c46565b915062000c9c8262000c57565b602082019050919050565b6000602082019050818103600083015262000cc28162000c80565b9050919050565b7f496e76616c696420657363726f77206164647265737300000000000000000000600082015250565b600062000d0160168362000c46565b915062000d0e8262000cc9565b602082019050919050565b6000602082019050818103600083015262000d348162000cf2565b9050919050565b7f496e76616c6964207374616b6520616464726573730000000000000000000000600082015250565b600062000d7360158362000c46565b915062000d808262000d3b565b602082019050919050565b6000602082019050818103600083015262000da68162000d64565b9050919050565b7f496e76616c696420706172616d73000000000000000000000000000000000000600082015250565b600062000de5600e8362000c46565b915062000df28262000dad565b602082019050919050565b6000602082019050818103600083015262000e188162000dd6565b9050919050565b7f496e76616c696420707269636573000000000000000000000000000000000000600082015250565b600062000e57600e8362000c46565b915062000e648262000e1f565b602082019050919050565b6000602082019050818103600083015262000e8a8162000e48565b9050919050565b7f646973636f756e7420736c616273206f7574206f662072616e67650000000000600082015250565b600062000ec9601b8362000c46565b915062000ed68262000e91565b602082019050919050565b6000602082019050818103600083015262000efc8162000eba565b9050919050565b7f646973636f756e742070657263656e7473206f7574206f662072616e67650000600082015250565b600062000f3b601e8362000c46565b915062000f488262000f03565b602082019050919050565b6000602082019050818103600083015262000f6e8162000f2c565b9050919050565b7f4e487b7100000000000000000000000000000000000000000000000000000000600052603260045260246000fd5b600081519050919050565b600081905092915050565b600062000fc78262000fa4565b62000fd3818562000faf565b935062000fe581856020860162000846565b80840191505092915050565b600062000fff828462000fba565b915081905092915050565b7f506172616d6574657220616c7265616479206578697374730000000000000000600082015250565b60006200104260188362000c46565b91506200104f826200100a565b602082019050919050565b60006020820190508181036000830152620010758162001033565b9050919050565b7f4e487b7100000000000000000000000000000000000000000000000000000000600052602260045260246000fd5b60006002820490506001821680620010c457607f821691505b602082108103620010da57620010d96200107c565b5b50919050565b60008190508160005260206000209050919050565b60006020601f8301049050919050565b600082821b905092915050565b600060088302620011447fffffffffffffffffffffffffffffffffffffffffffffffffffffffffffffffff8262001105565b62001150868362001105565b95508019841693508086168417925050509392505050565b6000819050919050565b6000620011936200118d6200118784620009e7565b62001168565b620009e7565b9050919050565b6000819050919050565b620011af8362001172565b620011c7620011be826200119a565b84845462001112565b825550505050565b600090565b620011de620011cf565b620011eb818484620011a4565b505050565b5b81811015620012135762001207600082620011d4565b600181019050620011f1565b5050565b601f82111562001262576200122c81620010e0565b6200123784620010f5565b8101602085101562001247578190505b6200125f6200125685620010f5565b830182620011f0565b50505b505050565b600082821c905092915050565b6000620012876000198460080262001267565b1980831691505092915050565b6000620012a2838362001274565b9150826002028217905092915050565b620012bd8262000fa4565b67ffffffffffffffff811115620012d957620012d862000753565b5b620012e58254620010ab565b620012f282828562001217565b600060209050601f8311600181146200132a576000841562001315578287015190505b62001321858262001294565b86555062001391565b601f1984166200133a86620010e0565b60005b8281101562001364578489015182556001820191506020850194506020810190506200133d565b8683101562001384578489015162001380601f89168262001274565b8355505b6001600288020188555050505b505050505050565b6000620013a68262000fa4565b620013b2818562000c46565b9350620013c481856020860162000846565b620013cf8162000742565b840191505092915050565b60006020820190508181036000830152620013f6818462001399565b905092915050565b7f646973636f756e7420736c616220616d6f756e742063616e206e6f742062652060008201527f7a65726f00000000000000000000000000000000000000000000000000000000602082015250565b60006200145c60248362000c46565b91506200146982620013fe565b604082019050919050565b600060208201905081810360008301526200148f816200144d565b9050919050565b7f646973636f756e7420736c61622070657263656e742063616e206e6f7420626560008201527f207a65726f000000000000000000000000000000000000000000000000000000602082015250565b6000620014f460258362000c46565b9150620015018262001496565b604082019050919050565b600060208201905081810360008301526200152781620014e5565b9050919050565b615ff5806200153e6000396000f3fe608060405234801561001057600080fd5b506004361061021c5760003560e01c80637aa7812211610125578063cc7a262e116100ad578063eb63055e1161007c578063eb63055e14610641578063f0ef9e5c1461065d578063f3ae241514610679578063fea9b572146106a9578063ff8bdd6e146106c75761021c565b8063cc7a262e146105cb578063cfc16254146105e9578063e2fdcc1714610605578063eb5762fd146106235761021c565b80638da5cb5b116100f45780638da5cb5b146105275780639d2f053c14610545578063a6f9dae114610575578063a8d088bb14610591578063c2293caf146105af5761021c565b80637aa781221461049b5780637bea60e7146104b957806382dc4a05146104d55780638b6a101a1461050b5761021c565b8063367caa09116101a85780634dfeeaad116101775780634dfeeaad146104095780634f64b2be146104275780636c3824ef146104575780636eb942be14610473578063795053d31461047d5761021c565b8063367caa0914610371578063392cc7611461038d5780633b6e750f146103a95780633d39c260146103d95761021c565b806321305871116101ef57806321305871146102cd57806322828cc2146102fd578063290d1a6e1461031b57806331daaaad146103375780633648572d146103535761021c565b8063086f99da146102215780630f3b1bd81461025157806310f3ee291461028157806314de7a241461029d575b600080fd5b61023b60048036038101906102369190613a76565b6106f8565b6040516102489190613abe565b60405180910390f35b61026b60048036038101906102669190613c1f565b610718565b6040516102789190613abe565b60405180910390f35b61029b60048036038101906102969190613d30565b61074e565b005b6102b760048036038101906102b29190613c1f565b6107e8565b6040516102c49190613d92565b60405180910390f35b6102e760048036038101906102e29190613e9c565b610816565b6040516102f49190613abe565b60405180910390f35b6103056108a3565b6040516103129190613f44565b60405180910390f35b61033560048036038101906103309190613f5f565b6108c9565b005b610351600480360381019061034c919061401f565b610beb565b005b61035b610d65565b6040516103689190613abe565b60405180910390f35b61038b60048036038101906103869190613d30565b610d78565b005b6103a760048036038101906103a29190613a76565b610e56565b005b6103c360048036038101906103be9190613a76565b610f99565b6040516103d09190613abe565b60405180910390f35b6103f360048036038101906103ee919061404c565b610fb9565b6040516104009190614088565b60405180910390f35b610411610ff8565b60405161041e91906140b2565b60405180910390f35b610441600480360381019061043c919061404c565b61101a565b60405161044e9190614088565b60405180910390f35b610471600480360381019061046c9190613d30565b611059565b005b61047b6115b7565b005b6104856116bd565b6040516104929190614088565b60405180910390f35b6104a36116e3565b6040516104b0919061418b565b60405180910390f35b6104d360048036038101906104ce919061428e565b6117a4565b005b6104ef60048036038101906104ea9190613a76565b611b0f565b6040516105029796959493929190614385565b60405180910390f35b61052560048036038101906105209190613a76565b611c6b565b005b61052f611e6c565b60405161053c9190614088565b60405180910390f35b61055f600480360381019061055a919061404c565b611e90565b60405161056c91906143fb565b60405180910390f35b61058f600480360381019061058a9190613a76565b611f3c565b005b6105996120bf565b6040516105a691906144db565b60405180910390f35b6105c960048036038101906105c491906144fd565b61214d565b005b6105d36124e3565b6040516105e09190614567565b60405180910390f35b61060360048036038101906105fe9190613a76565b612509565b005b61060d61264a565b60405161061a9190614088565b60405180910390f35b61062b612670565b604051610638919061418b565b60405180910390f35b61065b60048036038101906106569190613a76565b612731565b005b61067760048036038101906106729190614734565b6128e8565b005b610693600480360381019061068e9190613a76565b6132f6565b6040516106a09190613abe565b60405180910390f35b6106b16133ba565b6040516106be9190613d92565b60405180910390f35b6106e160048036038101906106dc919061404c565b6133bf565b6040516106ef929190614869565b60405180910390f35b60026020528060005260406000206000915054906101000a900460ff1681565b6005818051602081018201805184825260208301602085012081835280955050505050506000915054906101000a900460ff1681565b60008054906101000a900473ffffffffffffffffffffffffffffffffffffffff1673ffffffffffffffffffffffffffffffffffffffff163373ffffffffffffffffffffffffffffffffffffffff16146107dc576040517f08c379a00000000000000000000000000000000000000000000000000000000081526004016107d390614904565b60405180910390fd5b6107e5816133f3565b50565b6004818051602081018201805184825260208301602085012081835280955050505050506000915090505481565b6000806001905060005b6001845161082e9190614953565b81101561089957836001826108439190614987565b81518110610854576108536149bb565b5b602002602001015184828151811061086f5761086e6149bb565b5b602002602001015111156108865760009150610899565b8080610891906149ea565b915050610820565b5080915050919050565b600860009054906101000a900473ffffffffffffffffffffffffffffffffffffffff1681565b600360009054906101000a900473ffffffffffffffffffffffffffffffffffffffff1673ffffffffffffffffffffffffffffffffffffffff163373ffffffffffffffffffffffffffffffffffffffff1614610959576040517f08c379a000000000000000000000000000000000000000000000000000000000815260040161095090614aa4565b60405180910390fd5b805182511461099d576040517f08c379a000000000000000000000000000000000000000000000000000000000815260040161099490614b5c565b60405180910390fd5b6032815111156109e2576040517f08c379a00000000000000000000000000000000000000000000000000000000081526004016109d990614bee565b60405180910390fd5b600a60006109f0919061395c565b6109f982610816565b610a38576040517f08c379a0000000000000000000000000000000000000000000000000000000008152600401610a2f90614c80565b60405180910390fd5b610a4181610816565b610a80576040517f08c379a0000000000000000000000000000000000000000000000000000000008152600401610a7790614d12565b60405180910390fd5b60005b8251811015610be6576000838281518110610aa157610aa06149bb565b5b602002602001015111610ae9576040517f08c379a0000000000000000000000000000000000000000000000000000000008152600401610ae090614da4565b60405180910390fd5b6000828281518110610afe57610afd6149bb565b5b602002602001015111610b46576040517f08c379a0000000000000000000000000000000000000000000000000000000008152600401610b3d90614e36565b60405180910390fd5b60006040518060400160405280858481518110610b6657610b656149bb565b5b60200260200101518152602001848481518110610b8657610b856149bb565b5b60200260200101518152509050600a8190806001815401808255809150506001900390600052602060002090600202016000909190919091506000820151816000015560208201518160010155505050610bdf81613711565b9050610a83565b505050565b60011515600260003373ffffffffffffffffffffffffffffffffffffffff1673ffffffffffffffffffffffffffffffffffffffff16815260200190815260200160002060009054906101000a900460ff1615151480610c95575060008054906101000a900473ffffffffffffffffffffffffffffffffffffffff1673ffffffffffffffffffffffffffffffffffffffff163373ffffffffffffffffffffffffffffffffffffffff16145b610cd4576040517f08c379a0000000000000000000000000000000000000000000000000000000008152600401610ccb90614ec8565b60405180910390fd5b6000816fffffffffffffffffffffffffffffffff1603610d29576040517f08c379a0000000000000000000000000000000000000000000000000000000008152600401610d2090614f34565b60405180910390fd5b80600e60006101000a8154816fffffffffffffffffffffffffffffffff02191690836fffffffffffffffffffffffffffffffff16021790555050565b600960149054906101000a900460ff1681565b60008054906101000a900473ffffffffffffffffffffffffffffffffffffffff1673ffffffffffffffffffffffffffffffffffffffff163373ffffffffffffffffffffffffffffffffffffffff1614610e06576040517f08c379a0000000000000000000000000000000000000000000000000000000008152600401610dfd90614904565b60405180910390fd5b6000815111610e4a576040517f08c379a0000000000000000000000000000000000000000000000000000000008152600401610e4190614fa0565b60405180910390fd5b610e538161371e565b50565b600360009054906101000a900473ffffffffffffffffffffffffffffffffffffffff1673ffffffffffffffffffffffffffffffffffffffff163373ffffffffffffffffffffffffffffffffffffffff1614610ee6576040517f08c379a0000000000000000000000000000000000000000000000000000000008152600401610edd90614aa4565b60405180910390fd5b600073ffffffffffffffffffffffffffffffffffffffff168173ffffffffffffffffffffffffffffffffffffffff1603610f55576040517f08c379a0000000000000000000000000000000000000000000000000000000008152600401610f4c90615032565b60405180910390fd5b80600960006101000a81548173ffffffffffffffffffffffffffffffffffffffff021916908373ffffffffffffffffffffffffffffffffffffffff16021790555050565b600c6020528060005260406000206000915054906101000a900460ff1681565b60018181548110610fc957600080fd5b906000526020600020016000915054906101000a900473ffffffffffffffffffffffffffffffffffffffff1681565b600e60009054906101000a90046fffffffffffffffffffffffffffffffff1681565b600d818154811061102a57600080fd5b906000526020600020016000915054906101000a900473ffffffffffffffffffffffffffffffffffffffff1681565b600360009054906101000a900473ffffffffffffffffffffffffffffffffffffffff1673ffffffffffffffffffffffffffffffffffffffff163373ffffffffffffffffffffffffffffffffffffffff16146110e9576040517f08c379a00000000000000000000000000000000000000000000000000000000081526004016110e090614aa4565b60405180910390fd5b600081511161112d576040517f08c379a00000000000000000000000000000000000000000000000000000000081526004016111249061509e565b60405180910390fd5b603281511115611172576040517f08c379a00000000000000000000000000000000000000000000000000000000081526004016111699061510a565b60405180910390fd5b60005b81518110156115b357600073ffffffffffffffffffffffffffffffffffffffff168282815181106111a9576111a86149bb565b5b602002602001015173ffffffffffffffffffffffffffffffffffffffff1603611207576040517f08c379a00000000000000000000000000000000000000000000000000000000081526004016111fe9061519c565b60405180910390fd5b600b600083838151811061121e5761121d6149bb565b5b602002602001015173ffffffffffffffffffffffffffffffffffffffff1673ffffffffffffffffffffffffffffffffffffffff16815260200190815260200160002060020160149054906101000a900460ff16156115a3576001600d80549050116112be576040517f08c379a00000000000000000000000000000000000000000000000000000000081526004016112b590615208565b60405180910390fd5b60005b600d8054905081101561152f578282815181106112e1576112e06149bb565b5b602002602001015173ffffffffffffffffffffffffffffffffffffffff16600d8281548110611313576113126149bb565b5b9060005260206000200160009054906101000a900473ffffffffffffffffffffffffffffffffffffffff1673ffffffffffffffffffffffffffffffffffffffff160361151f57600d6001600d8054905061136d9190614953565b8154811061137e5761137d6149bb565b5b9060005260206000200160009054906101000a900473ffffffffffffffffffffffffffffffffffffffff16600d82815481106113bd576113bc6149bb565b5b9060005260206000200160006101000a81548173ffffffffffffffffffffffffffffffffffffffff021916908373ffffffffffffffffffffffffffffffffffffffff160217905550600d80548061141757611416615228565b5b6001900381819060005260206000200160006101000a81549073ffffffffffffffffffffffffffffffffffffffff021916905590556000600b6000858581518110611465576114646149bb565b5b602002602001015173ffffffffffffffffffffffffffffffffffffffff1673ffffffffffffffffffffffffffffffffffffffff16815260200190815260200160002060020160146101000a81548160ff0219169083151502179055508282815181106114d4576114d36149bb565b5b602002602001015173ffffffffffffffffffffffffffffffffffffffff167f4c910b69fe65a61f7531b9c5042b2329ca7179c77290aa7e2eb3afa3c8511fd360405160405180910390a25b61152881613711565b90506112c1565b506000600c6000848481518110611549576115486149bb565b5b602002602001015173ffffffffffffffffffffffffffffffffffffffff1673ffffffffffffffffffffffffffffffffffffffff16815260200190815260200160002060006101000a81548160ff0219169083151502179055505b6115ac81613711565b9050611175565b5050565b60011515600260003373ffffffffffffffffffffffffffffffffffffffff1673ffffffffffffffffffffffffffffffffffffffff16815260200190815260200160002060009054906101000a900460ff1615151480611661575060008054906101000a900473ffffffffffffffffffffffffffffffffffffffff1673ffffffffffffffffffffffffffffffffffffffff163373ffffffffffffffffffffffffffffffffffffffff16145b6116a0576040517f08c379a000000000000000000000000000000000000000000000000000000000815260040161169790614ec8565b60405180910390fd5b6000600960146101000a81548160ff021916908315150217905550565b600360009054906101000a900473ffffffffffffffffffffffffffffffffffffffff1681565b60606000600a8054905067ffffffffffffffff81111561170657611705613af4565b5b6040519080825280602002602001820160405280156117345781602001602082028036833780820191505090505b50905060005b600a8054905081101561179c57600a818154811061175b5761175a6149bb565b5b9060005260206000209060020201600001548282815181106117805761177f6149bb565b5b60200260200101818152505061179581613711565b905061173a565b508091505090565b60011515600260003373ffffffffffffffffffffffffffffffffffffffff1673ffffffffffffffffffffffffffffffffffffffff16815260200190815260200160002060009054906101000a900460ff161515148061184e575060008054906101000a900473ffffffffffffffffffffffffffffffffffffffff1673ffffffffffffffffffffffffffffffffffffffff163373ffffffffffffffffffffffffffffffffffffffff16145b61188d576040517f08c379a000000000000000000000000000000000000000000000000000000000815260040161188490614ec8565b60405180910390fd5b60008251116118d1576040517f08c379a00000000000000000000000000000000000000000000000000000000081526004016118c8906152a3565b60405180910390fd5b6000815111611915576040517f08c379a000000000000000000000000000000000000000000000000000000000815260040161190c9061530f565b60405180910390fd5b8051825114611959576040517f08c379a0000000000000000000000000000000000000000000000000000000008152600401611950906153a1565b60405180910390fd5b60005b8251811015611b0a57600083828151811061197a576119796149bb565b5b602002602001015190506000838381518110611999576119986149bb565b5b6020026020010151116119e1576040517f08c379a00000000000000000000000000000000000000000000000000000000081526004016119d890615433565b60405180910390fd5b60008383815181106119f6576119f56149bb565b5b6020026020010151905080600483604051611a11919061548f565b908152602001604051809103902081905550600582604051611a33919061548f565b908152602001604051809103902060009054906101000a900460ff16611ac0576001600583604051611a65919061548f565b908152602001604051809103902060006101000a81548160ff021916908315150217905550600682908060018154018082558091505060019003906000526020600020016000909190919091509081611abe91906156a8565b505b807f870d40c7d90f6666271874980d33eb5ab9a892f5cf72dbbff1f17914cf9f0b4083604051611af091906143fb565b60405180910390a25050611b0381613711565b905061195c565b505050565b600b602052806000526040600020600091509050806000018054611b32906154d5565b80601f0160208091040260200160405190810160405280929190818152602001828054611b5e906154d5565b8015611bab5780601f10611b8057610100808354040283529160200191611bab565b820191906000526020600020905b815481529060010190602001808311611b8e57829003601f168201915b5050505050908060010160009054906101000a90046fffffffffffffffffffffffffffffffff16908060020160009054906101000a900473ffffffffffffffffffffffffffffffffffffffff16908060020160149054906101000a900460ff16908060020160159054906101000a900460ff16908060030160009054906101000a900473ffffffffffffffffffffffffffffffffffffffff16908060040160009054906101000a90046fffffffffffffffffffffffffffffffff16905087565b60011515600260003373ffffffffffffffffffffffffffffffffffffffff1673ffffffffffffffffffffffffffffffffffffffff16815260200190815260200160002060009054906101000a900460ff1615151480611d15575060008054906101000a900473ffffffffffffffffffffffffffffffffffffffff1673ffffffffffffffffffffffffffffffffffffffff163373ffffffffffffffffffffffffffffffffffffffff16145b611d54576040517f08c379a0000000000000000000000000000000000000000000000000000000008152600401611d4b90614ec8565b60405180910390fd5b600073ffffffffffffffffffffffffffffffffffffffff16600760009054906101000a900473ffffffffffffffffffffffffffffffffffffffff1673ffffffffffffffffffffffffffffffffffffffff1603611de5576040517f08c379a0000000000000000000000000000000000000000000000000000000008152600401611ddc906157ec565b60405180910390fd5b80600760006101000a81548173ffffffffffffffffffffffffffffffffffffffff021916908373ffffffffffffffffffffffffffffffffffffffff1602179055508073ffffffffffffffffffffffffffffffffffffffff167f318fcfac94f60f12cf560cfa4a7650c22b0ff214caf5352ad84e77dee5c44a4060405160405180910390a250565b60008054906101000a900473ffffffffffffffffffffffffffffffffffffffff1681565b60068181548110611ea057600080fd5b906000526020600020016000915090508054611ebb906154d5565b80601f0160208091040260200160405190810160405280929190818152602001828054611ee7906154d5565b8015611f345780601f10611f0957610100808354040283529160200191611f34565b820191906000526020600020905b815481529060010190602001808311611f1757829003601f168201915b505050505081565b60008054906101000a900473ffffffffffffffffffffffffffffffffffffffff1673ffffffffffffffffffffffffffffffffffffffff163373ffffffffffffffffffffffffffffffffffffffff1614611fca576040517f08c379a0000000000000000000000000000000000000000000000000000000008152600401611fc190614904565b60405180910390fd5b600073ffffffffffffffffffffffffffffffffffffffff168173ffffffffffffffffffffffffffffffffffffffff1603612039576040517f08c379a000000000000000000000000000000000000000000000000000000000815260040161203090615858565b60405180910390fd5b806000806101000a81548173ffffffffffffffffffffffffffffffffffffffff021916908373ffffffffffffffffffffffffffffffffffffffff1602179055508073ffffffffffffffffffffffffffffffffffffffff167ff285329298fd841af46eb83bbe90d1ebe2951c975a65b19a02f965f842ee69c560405160405180910390a250565b6060600180548060200260200160405190810160405280929190818152602001828054801561214357602002820191906000526020600020905b8160009054906101000a900473ffffffffffffffffffffffffffffffffffffffff1673ffffffffffffffffffffffffffffffffffffffff16815260200190600101908083116120f9575b5050505050905090565b60011515600260003373ffffffffffffffffffffffffffffffffffffffff1673ffffffffffffffffffffffffffffffffffffffff16815260200190815260200160002060009054906101000a900460ff16151514806121f7575060008054906101000a900473ffffffffffffffffffffffffffffffffffffffff1673ffffffffffffffffffffffffffffffffffffffff163373ffffffffffffffffffffffffffffffffffffffff16145b612236576040517f08c379a000000000000000000000000000000000000000000000000000000000815260040161222d90614ec8565b60405180910390fd5b600081510361227a576040517f08c379a0000000000000000000000000000000000000000000000000000000008152600401612271906158c4565b60405180910390fd5b6032815111156122bf576040517f08c379a00000000000000000000000000000000000000000000000000000000081526004016122b690615930565b60405180910390fd5b60005b81518110156124df5760008282815181106122e0576122df6149bb565b5b6020026020010151905060006004826040516122fc919061548f565b90815260200160405180910390208190555060058160405161231e919061548f565b908152602001604051809103902060009054906101000a900460ff16156124ce576000600582604051612351919061548f565b908152602001604051809103902060006101000a81548160ff02191690831515021790555060005b6006805490508110156124955781604051602001612397919061548f565b60405160208183030381529060405280519060200120600682815481106123c1576123c06149bb565b5b906000526020600020016040516020016123db91906159d3565b6040516020818303038152906040528051906020012003612485576006600160068054905061240a9190614953565b8154811061241b5761241a6149bb565b5b9060005260206000200160068281548110612439576124386149bb565b5b90600052602060002001908161244f9190615a15565b50600680548061246257612461615228565b5b60019003818190600052602060002001600061247e9190613980565b9055612495565b61248e81613711565b9050612379565b507fe68f559e6f8ea23f3fe4e2a0e769fa6aa6cb1145d3acca2514e828ac04f926ee816040516124c591906143fb565b60405180910390a15b506124d881613711565b90506122c2565b5050565b600960009054906101000a900473ffffffffffffffffffffffffffffffffffffffff1681565b60008054906101000a900473ffffffffffffffffffffffffffffffffffffffff1673ffffffffffffffffffffffffffffffffffffffff163373ffffffffffffffffffffffffffffffffffffffff1614612597576040517f08c379a000000000000000000000000000000000000000000000000000000000815260040161258e90614904565b60405180910390fd5b600073ffffffffffffffffffffffffffffffffffffffff168173ffffffffffffffffffffffffffffffffffffffff1603612606576040517f08c379a00000000000000000000000000000000000000000000000000000000081526004016125fd90615b49565b60405180910390fd5b80600360006101000a81548173ffffffffffffffffffffffffffffffffffffffff021916908373ffffffffffffffffffffffffffffffffffffffff16021790555050565b600760009054906101000a900473ffffffffffffffffffffffffffffffffffffffff1681565b60606000600a8054905067ffffffffffffffff81111561269357612692613af4565b5b6040519080825280602002602001820160405280156126c15781602001602082028036833780820191505090505b50905060005b600a8054905081101561272957600a81815481106126e8576126e76149bb565b5b90600052602060002090600202016001015482828151811061270d5761270c6149bb565b5b60200260200101818152505061272281613711565b90506126c7565b508091505090565b60011515600260003373ffffffffffffffffffffffffffffffffffffffff1673ffffffffffffffffffffffffffffffffffffffff16815260200190815260200160002060009054906101000a900460ff16151514806127db575060008054906101000a900473ffffffffffffffffffffffffffffffffffffffff1673ffffffffffffffffffffffffffffffffffffffff163373ffffffffffffffffffffffffffffffffffffffff16145b61281a576040517f08c379a000000000000000000000000000000000000000000000000000000000815260040161281190614ec8565b60405180910390fd5b600073ffffffffffffffffffffffffffffffffffffffff168173ffffffffffffffffffffffffffffffffffffffff1603612889576040517f08c379a000000000000000000000000000000000000000000000000000000000815260040161288090615bdb565b60405180910390fd5b6001600960146101000a81548160ff02191690831515021790555080600860006101000a81548173ffffffffffffffffffffffffffffffffffffffff021916908373ffffffffffffffffffffffffffffffffffffffff16021790555050565b600360009054906101000a900473ffffffffffffffffffffffffffffffffffffffff1673ffffffffffffffffffffffffffffffffffffffff163373ffffffffffffffffffffffffffffffffffffffff1614612978576040517f08c379a000000000000000000000000000000000000000000000000000000000815260040161296f90614aa4565b60405180910390fd5b60008651116129bc576040517f08c379a00000000000000000000000000000000000000000000000000000000081526004016129b390615c47565b60405180910390fd5b6000855111612a00576040517f08c379a00000000000000000000000000000000000000000000000000000000081526004016129f790615cb3565b60405180910390fd5b6000845111612a44576040517f08c379a0000000000000000000000000000000000000000000000000000000008152600401612a3b90615d1f565b60405180910390fd5b8451865114612a88576040517f08c379a0000000000000000000000000000000000000000000000000000000008152600401612a7f90615d8b565b60405180910390fd5b8351865114612acc576040517f08c379a0000000000000000000000000000000000000000000000000000000008152600401612ac390615d8b565b60405180910390fd5b8151865114612b10576040517f08c379a0000000000000000000000000000000000000000000000000000000008152600401612b0790615d8b565b60405180910390fd5b8251865114612b54576040517f08c379a0000000000000000000000000000000000000000000000000000000008152600401612b4b90615d8b565b60405180910390fd5b8151865114612b98576040517f08c379a0000000000000000000000000000000000000000000000000000000008152600401612b8f90615d8b565b60405180910390fd5b8051865114612bdc576040517f08c379a0000000000000000000000000000000000000000000000000000000008152600401612bd390615d8b565b60405180910390fd5b60005b86518110156132ed57600b6000878381518110612bff57612bfe6149bb565b5b602002602001015173ffffffffffffffffffffffffffffffffffffffff1673ffffffffffffffffffffffffffffffffffffffff16815260200190815260200160002060020160149054906101000a900460ff1615612c92576040517f08c379a0000000000000000000000000000000000000000000000000000000008152600401612c8990615df7565b60405180910390fd5b600073ffffffffffffffffffffffffffffffffffffffff16868281518110612cbd57612cbc6149bb565b5b602002602001015173ffffffffffffffffffffffffffffffffffffffff1603612d1b576040517f08c379a0000000000000000000000000000000000000000000000000000000008152600401612d129061519c565b60405180910390fd5b6000858281518110612d3057612d2f6149bb565b5b60200260200101516fffffffffffffffffffffffffffffffff1611612d8a576040517f08c379a0000000000000000000000000000000000000000000000000000000008152600401612d8190615e63565b60405180910390fd5b6000878281518110612d9f57612d9e6149bb565b5b602002602001015190506000815103612ded576040517f08c379a0000000000000000000000000000000000000000000000000000000008152600401612de490615ecf565b60405180910390fd5b60006040518060e001604052808a8581518110612e0d57612e0c6149bb565b5b60200260200101518152602001888581518110612e2d57612e2c6149bb565b5b60200260200101516fffffffffffffffffffffffffffffffff168152602001898581518110612e5f57612e5e6149bb565b5b602002602001015173ffffffffffffffffffffffffffffffffffffffff168152602001600115158152602001878581518110612e9e57612e9d6149bb565b5b602002602001015115158152602001868581518110612ec057612ebf6149bb565b5b602002602001015173ffffffffffffffffffffffffffffffffffffffff168152602001858581518110612ef657612ef56149bb565b5b60200260200101516fffffffffffffffffffffffffffffffff16815250905080600b60008a8681518110612f2d57612f2c6149bb565b5b602002602001015173ffffffffffffffffffffffffffffffffffffffff1673ffffffffffffffffffffffffffffffffffffffff1681526020019081526020016000206000820151816000019081612f8491906156a8565b5060208201518160010160006101000a8154816fffffffffffffffffffffffffffffffff02191690836fffffffffffffffffffffffffffffffff16021790555060408201518160020160006101000a81548173ffffffffffffffffffffffffffffffffffffffff021916908373ffffffffffffffffffffffffffffffffffffffff16021790555060608201518160020160146101000a81548160ff02191690831515021790555060808201518160020160156101000a81548160ff02191690831515021790555060a08201518160030160006101000a81548173ffffffffffffffffffffffffffffffffffffffff021916908373ffffffffffffffffffffffffffffffffffffffff16021790555060c08201518160040160006101000a8154816fffffffffffffffffffffffffffffffff02191690836fffffffffffffffffffffffffffffffff160217905550905050600d8884815181106130e9576130e86149bb565b5b60200260200101519080600181540180825580915050600190039060005260206000200160009091909190916101000a81548173ffffffffffffffffffffffffffffffffffffffff021916908373ffffffffffffffffffffffffffffffffffffffff1602179055506001600c60008a868151811061316a576131696149bb565b5b602002602001015173ffffffffffffffffffffffffffffffffffffffff1673ffffffffffffffffffffffffffffffffffffffff16815260200190815260200160002060006101000a81548160ff0219169083151502179055508483815181106131d6576131d56149bb565b5b602002602001015173ffffffffffffffffffffffffffffffffffffffff16878481518110613207576132066149bb565b5b60200260200101516fffffffffffffffffffffffffffffffff16898581518110613234576132336149bb565b5b602002602001015173ffffffffffffffffffffffffffffffffffffffff167fff9242d54b265bbae962170e2bbc9ba14f4ce45eaadd7e7d973fa79bd70177988c8781518110613286576132856149bb565b5b60200260200101518a88815181106132a1576132a06149bb565b5b60200260200101518989815181106132bc576132bb6149bb565b5b60200260200101516040516132d393929190615eef565b60405180910390a450506132e681613711565b9050612bdf565b50505050505050565b600060011515600260008473ffffffffffffffffffffffffffffffffffffffff1673ffffffffffffffffffffffffffffffffffffffff16815260200190815260200160002060009054906101000a900460ff16151514806133a2575060008054906101000a900473ffffffffffffffffffffffffffffffffffffffff1673ffffffffffffffffffffffffffffffffffffffff168273ffffffffffffffffffffffffffffffffffffffff16145b156133b057600190506133b5565b600090505b919050565b603281565b600a81815481106133cf57600080fd5b90600052602060002090600202016000915090508060000154908060010154905082565b6000815111613437576040517f08c379a000000000000000000000000000000000000000000000000000000000815260040161342e90615f9f565b60405180910390fd5b60005b81518110156136d6576002600083838151811061345a576134596149bb565b5b602002602001015173ffffffffffffffffffffffffffffffffffffffff1673ffffffffffffffffffffffffffffffffffffffff16815260200190815260200160002060009054906101000a900460ff16156136c35760005b60018054905081101561364f578282815181106134d2576134d16149bb565b5b602002602001015173ffffffffffffffffffffffffffffffffffffffff1660018281548110613504576135036149bb565b5b9060005260206000200160009054906101000a900473ffffffffffffffffffffffffffffffffffffffff1673ffffffffffffffffffffffffffffffffffffffff160361363c57600180808054905061355c9190614953565b8154811061356d5761356c6149bb565b5b9060005260206000200160009054906101000a900473ffffffffffffffffffffffffffffffffffffffff16600182815481106135ac576135ab6149bb565b5b9060005260206000200160006101000a81548173ffffffffffffffffffffffffffffffffffffffff021916908373ffffffffffffffffffffffffffffffffffffffff160217905550600180548061360657613605615228565b5b6001900381819060005260206000200160006101000a81549073ffffffffffffffffffffffffffffffffffffffff021916905590555b8080613647906149ea565b9150506134b2565b50600060026000848481518110613669576136686149bb565b5b602002602001015173ffffffffffffffffffffffffffffffffffffffff1673ffffffffffffffffffffffffffffffffffffffff16815260200190815260200160002060006101000a81548160ff0219169083151502179055505b80806136ce906149ea565b91505061343a565b507f96b899640d4155ed6e380545044f61a6e1e9f87e76a12b3e533c7c30005c473f8160405161370691906144db565b60405180910390a150565b6000600182019050919050565b60005b815181101561392157600073ffffffffffffffffffffffffffffffffffffffff16828281518110613755576137546149bb565b5b602002602001015173ffffffffffffffffffffffffffffffffffffffff16036137b3576040517f08c379a00000000000000000000000000000000000000000000000000000000081526004016137aa90615b49565b60405180910390fd5b600260008383815181106137ca576137c96149bb565b5b602002602001015173ffffffffffffffffffffffffffffffffffffffff1673ffffffffffffffffffffffffffffffffffffffff16815260200190815260200160002060009054906101000a900460ff1661390e57600160026000848481518110613837576138366149bb565b5b602002602001015173ffffffffffffffffffffffffffffffffffffffff1673ffffffffffffffffffffffffffffffffffffffff16815260200190815260200160002060006101000a81548160ff02191690831515021790555060018282815181106138a5576138a46149bb565b5b60200260200101519080600181540180825580915050600190039060005260206000200160009091909190916101000a81548173ffffffffffffffffffffffffffffffffffffffff021916908373ffffffffffffffffffffffffffffffffffffffff1602179055505b8080613919906149ea565b915050613721565b507febc8a9fbc2b092789ea1be7f05921444be8909fedea4c9c96b65dde5af36c2328160405161395191906144db565b60405180910390a150565b508054600082556002029060005260206000209081019061397d91906139c0565b50565b50805461398c906154d5565b6000825580601f1061399e57506139bd565b601f0160209004906000526020600020908101906139bc91906139e7565b5b50565b5b808211156139e3576000808201600090556001820160009055506002016139c1565b5090565b5b80821115613a005760008160009055506001016139e8565b5090565b6000604051905090565b600080fd5b600080fd5b600073ffffffffffffffffffffffffffffffffffffffff82169050919050565b6000613a4382613a18565b9050919050565b613a5381613a38565b8114613a5e57600080fd5b50565b600081359050613a7081613a4a565b92915050565b600060208284031215613a8c57613a8b613a0e565b5b6000613a9a84828501613a61565b91505092915050565b60008115159050919050565b613ab881613aa3565b82525050565b6000602082019050613ad36000830184613aaf565b92915050565b600080fd5b600080fd5b6000601f19601f8301169050919050565b7f4e487b7100000000000000000000000000000000000000000000000000000000600052604160045260246000fd5b613b2c82613ae3565b810181811067ffffffffffffffff82111715613b4b57613b4a613af4565b5b80604052505050565b6000613b5e613a04565b9050613b6a8282613b23565b919050565b600067ffffffffffffffff821115613b8a57613b89613af4565b5b613b9382613ae3565b9050602081019050919050565b82818337600083830152505050565b6000613bc2613bbd84613b6f565b613b54565b905082815260208101848484011115613bde57613bdd613ade565b5b613be9848285613ba0565b509392505050565b600082601f830112613c0657613c05613ad9565b5b8135613c16848260208601613baf565b91505092915050565b600060208284031215613c3557613c34613a0e565b5b600082013567ffffffffffffffff811115613c5357613c52613a13565b5b613c5f84828501613bf1565b91505092915050565b600067ffffffffffffffff821115613c8357613c82613af4565b5b602082029050602081019050919050565b600080fd5b6000613cac613ca784613c68565b613b54565b90508083825260208201905060208402830185811115613ccf57613cce613c94565b5b835b81811015613cf85780613ce48882613a61565b845260208401935050602081019050613cd1565b5050509392505050565b600082601f830112613d1757613d16613ad9565b5b8135613d27848260208601613c99565b91505092915050565b600060208284031215613d4657613d45613a0e565b5b600082013567ffffffffffffffff811115613d6457613d63613a13565b5b613d7084828501613d02565b91505092915050565b6000819050919050565b613d8c81613d79565b82525050565b6000602082019050613da76000830184613d83565b92915050565b600067ffffffffffffffff821115613dc857613dc7613af4565b5b602082029050602081019050919050565b613de281613d79565b8114613ded57600080fd5b50565b600081359050613dff81613dd9565b92915050565b6000613e18613e1384613dad565b613b54565b90508083825260208201905060208402830185811115613e3b57613e3a613c94565b5b835b81811015613e645780613e508882613df0565b845260208401935050602081019050613e3d565b5050509392505050565b600082601f830112613e8357613e82613ad9565b5b8135613e93848260208601613e05565b91505092915050565b600060208284031215613eb257613eb1613a0e565b5b600082013567ffffffffffffffff811115613ed057613ecf613a13565b5b613edc84828501613e6e565b91505092915050565b6000819050919050565b6000613f0a613f05613f0084613a18565b613ee5565b613a18565b9050919050565b6000613f1c82613eef565b9050919050565b6000613f2e82613f11565b9050919050565b613f3e81613f23565b82525050565b6000602082019050613f596000830184613f35565b92915050565b60008060408385031215613f7657613f75613a0e565b5b600083013567ffffffffffffffff811115613f9457613f93613a13565b5b613fa085828601613e6e565b925050602083013567ffffffffffffffff811115613fc157613fc0613a13565b5b613fcd85828601613e6e565b9150509250929050565b60006fffffffffffffffffffffffffffffffff82169050919050565b613ffc81613fd7565b811461400757600080fd5b50565b60008135905061401981613ff3565b92915050565b60006020828403121561403557614034613a0e565b5b60006140438482850161400a565b91505092915050565b60006020828403121561406257614061613a0e565b5b600061407084828501613df0565b91505092915050565b61408281613a38565b82525050565b600060208201905061409d6000830184614079565b92915050565b6140ac81613fd7565b82525050565b60006020820190506140c760008301846140a3565b92915050565b600081519050919050565b600082825260208201905092915050565b6000819050602082019050919050565b61410281613d79565b82525050565b600061411483836140f9565b60208301905092915050565b6000602082019050919050565b6000614138826140cd565b61414281856140d8565b935061414d836140e9565b8060005b8381101561417e5781516141658882614108565b975061417083614120565b925050600181019050614151565b5085935050505092915050565b600060208201905081810360008301526141a5818461412d565b905092915050565b600067ffffffffffffffff8211156141c8576141c7613af4565b5b602082029050602081019050919050565b60006141ec6141e7846141ad565b613b54565b9050808382526020820190506020840283018581111561420f5761420e613c94565b5b835b8181101561425657803567ffffffffffffffff81111561423457614233613ad9565b5b8086016142418982613bf1565b85526020850194505050602081019050614211565b5050509392505050565b600082601f83011261427557614274613ad9565b5b81356142858482602086016141d9565b91505092915050565b600080604083850312156142a5576142a4613a0e565b5b600083013567ffffffffffffffff8111156142c3576142c2613a13565b5b6142cf85828601614260565b925050602083013567ffffffffffffffff8111156142f0576142ef613a13565b5b6142fc85828601613e6e565b9150509250929050565b600081519050919050565b600082825260208201905092915050565b60005b83811015614340578082015181840152602081019050614325565b60008484015250505050565b600061435782614306565b6143618185614311565b9350614371818560208601614322565b61437a81613ae3565b840191505092915050565b600060e082019050818103600083015261439f818a61434c565b90506143ae60208301896140a3565b6143bb6040830188614079565b6143c86060830187613aaf565b6143d56080830186613aaf565b6143e260a0830185614079565b6143ef60c08301846140a3565b98975050505050505050565b60006020820190508181036000830152614415818461434c565b905092915050565b600081519050919050565b600082825260208201905092915050565b6000819050602082019050919050565b61445281613a38565b82525050565b60006144648383614449565b60208301905092915050565b6000602082019050919050565b60006144888261441d565b6144928185614428565b935061449d83614439565b8060005b838110156144ce5781516144b58882614458565b97506144c083614470565b9250506001810190506144a1565b5085935050505092915050565b600060208201905081810360008301526144f5818461447d565b905092915050565b60006020828403121561451357614512613a0e565b5b600082013567ffffffffffffffff81111561453157614530613a13565b5b61453d84828501614260565b91505092915050565b600061455182613f11565b9050919050565b61456181614546565b82525050565b600060208201905061457c6000830184614558565b92915050565b600067ffffffffffffffff82111561459d5761459c613af4565b5b602082029050602081019050919050565b60006145c16145bc84614582565b613b54565b905080838252602082019050602084028301858111156145e4576145e3613c94565b5b835b8181101561460d57806145f9888261400a565b8452602084019350506020810190506145e6565b5050509392505050565b600082601f83011261462c5761462b613ad9565b5b813561463c8482602086016145ae565b91505092915050565b600067ffffffffffffffff8211156146605761465f613af4565b5b602082029050602081019050919050565b61467a81613aa3565b811461468557600080fd5b50565b60008135905061469781614671565b92915050565b60006146b06146ab84614645565b613b54565b905080838252602082019050602084028301858111156146d3576146d2613c94565b5b835b818110156146fc57806146e88882614688565b8452602084019350506020810190506146d5565b5050509392505050565b600082601f83011261471b5761471a613ad9565b5b813561472b84826020860161469d565b91505092915050565b60008060008060008060c0878903121561475157614750613a0e565b5b600087013567ffffffffffffffff81111561476f5761476e613a13565b5b61477b89828a01614260565b965050602087013567ffffffffffffffff81111561479c5761479b613a13565b5b6147a889828a01613d02565b955050604087013567ffffffffffffffff8111156147c9576147c8613a13565b5b6147d589828a01614617565b945050606087013567ffffffffffffffff8111156147f6576147f5613a13565b5b61480289828a01614706565b935050608087013567ffffffffffffffff81111561482357614822613a13565b5b61482f89828a01613d02565b92505060a087013567ffffffffffffffff8111156148505761484f613a13565b5b61485c89828a01614617565b9150509295509295509295565b600060408201905061487e6000830185613d83565b61488b6020830184613d83565b9392505050565b7f4f6e6c79206f776e65722063616e2063616c6c20746869732066756e6374696f60008201527f6e00000000000000000000000000000000000000000000000000000000000000602082015250565b60006148ee602183614311565b91506148f982614892565b604082019050919050565b6000602082019050818103600083015261491d816148e1565b9050919050565b7f4e487b7100000000000000000000000000000000000000000000000000000000600052601160045260246000fd5b600061495e82613d79565b915061496983613d79565b925082820390508181111561498157614980614924565b5b92915050565b600061499282613d79565b915061499d83613d79565b92508282019050808211156149b5576149b4614924565b5b92915050565b7f4e487b7100000000000000000000000000000000000000000000000000000000600052603260045260246000fd5b60006149f582613d79565b91507fffffffffffffffffffffffffffffffffffffffffffffffffffffffffffffffff8203614a2757614a26614924565b5b600182019050919050565b7f43616c6c6572206973206e6f742074686520676f7665726e616e636520636f6e60008201527f7472616374000000000000000000000000000000000000000000000000000000602082015250565b6000614a8e602583614311565b9150614a9982614a32565b604082019050919050565b60006020820190508181036000830152614abd81614a81565b9050919050565b7f646973636f756e7420736c61627320617272617920616e6420646973636f756e60008201527f7420616d6f756e74206172726179206861766520646966666572656e7420736960208201527f7a65000000000000000000000000000000000000000000000000000000000000604082015250565b6000614b46604283614311565b9150614b5182614ac4565b606082019050919050565b60006020820190508181036000830152614b7581614b39565b9050919050565b7f646973636f756e7420736c6162732061727261792063616e206e6f742062652060008201527f6d6f7265207468616e2031300000000000000000000000000000000000000000602082015250565b6000614bd8602c83614311565b9150614be382614b7c565b604082019050919050565b60006020820190508181036000830152614c0781614bcb565b9050919050565b7f646973636f756e7420736c616273206172726179206973206e6f7420696e637260008201527f656d656e74616c00000000000000000000000000000000000000000000000000602082015250565b6000614c6a602783614311565b9150614c7582614c0e565b604082019050919050565b60006020820190508181036000830152614c9981614c5d565b9050919050565b7f646973636f756e742070657263656e74206172726179206973206e6f7420696e60008201527f6372656d656e74616c0000000000000000000000000000000000000000000000602082015250565b6000614cfc602983614311565b9150614d0782614ca0565b604082019050919050565b60006020820190508181036000830152614d2b81614cef565b9050919050565b7f646973636f756e7420736c616220616d6f756e742063616e206e6f742062652060008201527f7a65726f00000000000000000000000000000000000000000000000000000000602082015250565b6000614d8e602483614311565b9150614d9982614d32565b604082019050919050565b60006020820190508181036000830152614dbd81614d81565b9050919050565b7f646973636f756e7420736c61622070657263656e742063616e206e6f7420626560008201527f207a65726f000000000000000000000000000000000000000000000000000000602082015250565b6000614e20602583614311565b9150614e2b82614dc4565b604082019050919050565b60006020820190508181036000830152614e4f81614e13565b9050919050565b7f4f6e6c79206d616e6167657220616e64206f776e65722063616e2063616c6c2060008201527f746869732066756e6374696f6e00000000000000000000000000000000000000602082015250565b6000614eb2602d83614311565b9150614ebd82614e56565b604082019050919050565b60006020820190508181036000830152614ee181614ea5565b9050919050565b7f55534420746f20707265636973696f6e2063616e206e6f74206265207a65726f600082015250565b6000614f1e602083614311565b9150614f2982614ee8565b602082019050919050565b60006020820190508181036000830152614f4d81614f11565b9050919050565b7f4174206c65617374206f6e65206d616e61676572206d75737420626520736574600082015250565b6000614f8a602083614311565b9150614f9582614f54565b602082019050919050565b60006020820190508181036000830152614fb981614f7d565b9050919050565b7f7374616b656420746f6b656e20616464726573732063616e206e6f742062652060008201527f7a65726f20616464726573730000000000000000000000000000000000000000602082015250565b600061501c602c83614311565b915061502782614fc0565b604082019050919050565b6000602082019050818103600083015261504b8161500f565b9050919050565b7f6172726179206c656e6774682063616e6e6f74206265207a65726f0000000000600082015250565b6000615088601b83614311565b915061509382615052565b602082019050919050565b600060208201905081810360008301526150b78161507b565b9050919050565b7f746f6f206d616e7920746f6b656e7320746f2072656d6f766500000000000000600082015250565b60006150f4601983614311565b91506150ff826150be565b602082019050919050565b60006020820190508181036000830152615123816150e7565b9050919050565b7f746f6b656e20616464726573732063616e206e6f74206265207a65726f20616460008201527f6472657373000000000000000000000000000000000000000000000000000000602082015250565b6000615186602583614311565b91506151918261512a565b604082019050919050565b600060208201905081810360008301526151b581615179565b9050919050565b7f43616e6e6f742072656d6f766520616c6c207061796d656e7420746f6b656e73600082015250565b60006151f2602083614311565b91506151fd826151bc565b602082019050919050565b60006020820190508181036000830152615221816151e5565b9050919050565b7f4e487b7100000000000000000000000000000000000000000000000000000000600052603160045260246000fd5b7f4e6f20706172616d65746572732070726f766964656400000000000000000000600082015250565b600061528d601683614311565b915061529882615257565b602082019050919050565b600060208201905081810360008301526152bc81615280565b9050919050565b7f4e6f207072696365732070726f76696465640000000000000000000000000000600082015250565b60006152f9601283614311565b9150615304826152c3565b602082019050919050565b60006020820190508181036000830152615328816152ec565b9050919050565b7f537562736372697074696f6e20446174613a20756e657175616c206c656e677460008201527f68206f6620617272617900000000000000000000000000000000000000000000602082015250565b600061538b602a83614311565b91506153968261532f565b604082019050919050565b600060208201905081810360008301526153ba8161537e565b9050919050565b7f5072696365206f6620706172616d657465722063616e206e6f74206265207a6560008201527f726f000000000000000000000000000000000000000000000000000000000000602082015250565b600061541d602283614311565b9150615428826153c1565b604082019050919050565b6000602082019050818103600083015261544c81615410565b9050919050565b600081905092915050565b600061546982614306565b6154738185615453565b9350615483818560208601614322565b80840191505092915050565b600061549b828461545e565b915081905092915050565b7f4e487b7100000000000000000000000000000000000000000000000000000000600052602260045260246000fd5b600060028204905060018216806154ed57607f821691505b602082108103615500576154ff6154a6565b5b50919050565b60008190508160005260206000209050919050565b60006020601f8301049050919050565b600082821b905092915050565b6000600883026155687fffffffffffffffffffffffffffffffffffffffffffffffffffffffffffffffff8261552b565b615572868361552b565b95508019841693508086168417925050509392505050565b60006155a56155a061559b84613d79565b613ee5565b613d79565b9050919050565b6000819050919050565b6155bf8361558a565b6155d36155cb826155ac565b848454615538565b825550505050565b600090565b6155e86155db565b6155f38184846155b6565b505050565b5b818110156156175761560c6000826155e0565b6001810190506155f9565b5050565b601f82111561565c5761562d81615506565b6156368461551b565b81016020851015615645578190505b6156596156518561551b565b8301826155f8565b50505b505050565b600082821c905092915050565b600061567f60001984600802615661565b1980831691505092915050565b6000615698838361566e565b9150826002028217905092915050565b6156b182614306565b67ffffffffffffffff8111156156ca576156c9613af4565b5b6156d482546154d5565b6156df82828561561b565b600060209050601f8311600181146157125760008415615700578287015190505b61570a858261568c565b865550615772565b601f19841661572086615506565b60005b8281101561574857848901518255600182019150602085019450602081019050615723565b868310156157655784890151615761601f89168261566e565b8355505b6001600288020188555050505b505050505050565b7f537562736372697074696f6e20446174613a20457363726f772061646472657360008201527f732063616e206e6f74206265207a65726f206164647265737300000000000000602082015250565b60006157d6603983614311565b91506157e18261577a565b604082019050919050565b60006020820190508181036000830152615805816157c9565b9050919050565b7f4e6577206f776e65722063616e6e6f74206265207a65726f2061646472657373600082015250565b6000615842602083614311565b915061584d8261580c565b602082019050919050565b6000602082019050818103600083015261587181615835565b9050919050565b7f656d707479206172726179000000000000000000000000000000000000000000600082015250565b60006158ae600b83614311565b91506158b982615878565b602082019050919050565b600060208201905081810360008301526158dd816158a1565b9050919050565b7f746f6f206d75636820706172616d657465727300000000000000000000000000600082015250565b600061591a601383614311565b9150615925826158e4565b602082019050919050565b600060208201905081810360008301526159498161590d565b9050919050565b6000815461595d816154d5565b6159678186615453565b945060018216600081146159825760018114615997576159ca565b60ff19831686528115158202860193506159ca565b6159a085615506565b60005b838110156159c2578154818901526001820191506020810190506159a3565b838801955050505b50505092915050565b60006159df8284615950565b915081905092915050565b6000815490506159f9816154d5565b9050919050565b60008190508160005260206000209050919050565b818103615a23575050615afb565b615a2c826159ea565b67ffffffffffffffff811115615a4557615a44613af4565b5b615a4f82546154d5565b615a5a82828561561b565b6000601f831160018114615a895760008415615a77578287015490505b615a81858261568c565b865550615af4565b601f198416615a9787615a00565b9650615aa286615506565b60005b82811015615aca57848901548255600182019150600185019450602081019050615aa5565b86831015615ae75784890154615ae3601f89168261566e565b8355505b6001600288020188555050505b5050505050505b565b7f416464726573732063616e6e6f74206265207a65726f20616464726573730000600082015250565b6000615b33601e83614311565b9150615b3e82615afd565b602082019050919050565b60006020820190508181036000830152615b6281615b26565b9050919050565b7f7374616b696e67206d616e6167657220616464726573732063616e206e6f742060008201527f6265207a65726f20616464726573730000000000000000000000000000000000602082015250565b6000615bc5602f83614311565b9150615bd082615b69565b604082019050919050565b60006020820190508181036000830152615bf481615bb8565b9050919050565b7f4e6f2073796d626f6c2070726f76696465640000000000000000000000000000600082015250565b6000615c31601283614311565b9150615c3c82615bfb565b602082019050919050565b60006020820190508181036000830152615c6081615c24565b9050919050565b7f4e6f20746f6b656e2070726f7669646564000000000000000000000000000000600082015250565b6000615c9d601183614311565b9150615ca882615c67565b602082019050919050565b60006020820190508181036000830152615ccc81615c90565b9050919050565b7f4e6f20646563696d616c2070726f766964656400000000000000000000000000600082015250565b6000615d09601383614311565b9150615d1482615cd3565b602082019050919050565b60006020820190508181036000830152615d3881615cfc565b9050919050565b7f496e76616c696420617272617900000000000000000000000000000000000000600082015250565b6000615d75600d83614311565b9150615d8082615d3f565b602082019050919050565b60006020820190508181036000830152615da481615d68565b9050919050565b7f746f6b656e20616c726561647920616464656400000000000000000000000000600082015250565b6000615de1601383614311565b9150615dec82615dab565b602082019050919050565b60006020820190508181036000830152615e1081615dd4565b9050919050565b7f746f6b656e20646563696d616c2063616e206e6f74206265207a65726f000000600082015250565b6000615e4d601d83614311565b9150615e5882615e17565b602082019050919050565b60006020820190508181036000830152615e7c81615e40565b9050919050565b7f746f6b656e2073796d626f6c2063616e206e6f7420626520656d707479000000600082015250565b6000615eb9601d83614311565b9150615ec482615e83565b602082019050919050565b60006020820190508181036000830152615ee881615eac565b9050919050565b60006060820190508181036000830152615f09818661434c565b9050615f186020830185613aaf565b615f2560408301846140a3565b949350505050565b7f4174206c65617374206f6e65206d616e61676572206d7573742062652072656d60008201527f6f76656400000000000000000000000000000000000000000000000000000000602082015250565b6000615f89602483614311565b9150615f9482615f2d565b604082019050919050565b60006020820190508181036000830152615fb881615f7c565b905091905056fea2646970667358221220ae7e01f31ed101e737dcd25dc28859af0050f64595d55710a004ecd7ca81186064736f6c63430008130033",
  "devdoc": {
    "kind": "dev",
    "methods": {
      "addNewTokens(string[],address[],uint128[],bool[],address[],uint128[])": {
        "params": {
          "_decimals": "token decimals",
          "_symbols": "token symbols",
          "_tokens": "token address",
          "isChainLinkFeed_": "if price feed chain link feed",
          "priceFeedAddress_": "address of price feed",
          "priceFeedPrecision_": "precision of price feed"
        }
      },
      "changeOwner(address)": {
        "details": "change owner of the contract",
        "params": {
          "o": "address of new owner"
        }
      },
      "changeUsdPrecision(uint128)": {
        "params": {
          "p": "new precision value"
        }
      },
      "constructor": {
        "params": {
          "_escrow": "escrow address for payments",
          "_params": "array of name of subscription parameter",
          "_prices": "array of prices of subscription parameters",
          "_stakedToken": "address of staked token",
          "slabAmounts_": "array of amounts that seperates different slabs of discount",
          "slabPercents_": "array of percent of discount user will get"
        }
      },
      "deleteParams(string[])": {
        "params": {
          "_params": "names of all the parameters to be deleted"
        }
      },
      "enableDiscounts(address)": {
        "params": {
          "s": "address of staking manager"
        }
      },
      "getManagers()": {
        "details": "get list of all managers",
        "returns": {
          "_0": "list of all managers"
        }
      },
      "isManager(address)": {
        "details": "get list of all managers",
        "returns": {
          "_0": "list of all managers"
        }
      },
      "removeManagers(address[])": {
        "details": "Function to remove managers",
        "params": {
          "m": "list of addresses that are to be removed from managers"
        }
      },
      "removeTokens(address[])": {
        "params": {
          "t": "token address"
        }
      },
      "setGovernanceAddress(address)": {
        "details": "GovernanceOwnable constructor sets the governance address",
        "params": {
          "g": "address of governance contract"
        }
      },
      "setManagers(address[])": {
        "details": "Function to set managers",
        "params": {
          "m": "list of addresses that are to be added as managers"
        }
      },
      "updateDiscountSlabs(uint256[],uint256[])": {
        "params": {
          "slabAmounts_": "array of amounts that seperates different slabs of discount",
          "slabPercents_": "array of percent of discount user will get"
        }
      },
      "updateEscrow(address)": {
        "params": {
          "_escrow": "address for new escrow"
        }
      },
      "updateParams(string[],uint256[])": {
        "params": {
          "_params": "names of all the parameters to add or update",
          "_prices": "list of prices of parameters index matched with _params"
        }
      },
      "updateStakedToken(address)": {
        "params": {
          "s": "new staked token address"
        }
      }
    },
    "version": 1
  },
  "userdoc": {
    "kind": "user",
    "methods": {
      "addNewTokens(string[],address[],uint128[],bool[],address[],uint128[])": {
        "notice": "add new token for payments"
      },
      "changeUsdPrecision(uint128)": {
        "notice": "change precision of USD value"
      },
      "constructor": {
        "notice": "initialise the contract"
      },
      "deleteParams(string[])": {
        "notice": "delete parameters"
      },
      "disableDiscounts()": {
        "notice": "disable discounts for users"
      },
      "discountPercents()": {
        "notice": "returns discount percents matched with slabs array"
      },
      "enableDiscounts(address)": {
        "notice": "enable discounts for users."
      },
      "removeTokens(address[])": {
        "notice": "remove tokens for payment"
      },
      "slabs()": {
        "notice": "returns discount slabs array"
      },
      "updateDiscountSlabs(uint256[],uint256[])": {
        "notice": "delete previously set discount slabs and input new discount slabs"
      },
      "updateEscrow(address)": {
        "notice": "update escrow address"
      },
      "updateParams(string[],uint256[])": {
        "notice": "update parameters"
      },
      "updateStakedToken(address)": {
        "notice": "update staked token address"
      }
    },
    "version": 1
  },
  "storageLayout": {
    "storage": [
      {
        "astId": 2179,
        "contract": "contracts/SubscriptionData.sol:SubscriptionData",
        "label": "owner",
        "offset": 0,
        "slot": "0",
        "type": "t_address"
      },
      {
        "astId": 2182,
        "contract": "contracts/SubscriptionData.sol:SubscriptionData",
        "label": "managers",
        "offset": 0,
        "slot": "1",
        "type": "t_array(t_address)dyn_storage"
      },
      {
        "astId": 2186,
        "contract": "contracts/SubscriptionData.sol:SubscriptionData",
        "label": "managerByAddress",
        "offset": 0,
        "slot": "2",
        "type": "t_mapping(t_address,t_bool)"
      },
      {
        "astId": 2139,
        "contract": "contracts/SubscriptionData.sol:SubscriptionData",
        "label": "governanceAddress",
        "offset": 0,
        "slot": "3",
        "type": "t_address"
      },
      {
        "astId": 742,
        "contract": "contracts/SubscriptionData.sol:SubscriptionData",
        "label": "priceData",
        "offset": 0,
        "slot": "4",
        "type": "t_mapping(t_string_memory_ptr,t_uint256)"
      },
      {
        "astId": 746,
        "contract": "contracts/SubscriptionData.sol:SubscriptionData",
        "label": "availableParams",
        "offset": 0,
        "slot": "5",
        "type": "t_mapping(t_string_memory_ptr,t_bool)"
      },
      {
        "astId": 749,
        "contract": "contracts/SubscriptionData.sol:SubscriptionData",
        "label": "params",
        "offset": 0,
        "slot": "6",
        "type": "t_array(t_string_storage)dyn_storage"
      },
      {
        "astId": 751,
        "contract": "contracts/SubscriptionData.sol:SubscriptionData",
        "label": "escrow",
        "offset": 0,
        "slot": "7",
        "type": "t_address"
      },
      {
        "astId": 754,
        "contract": "contracts/SubscriptionData.sol:SubscriptionData",
        "label": "stakingManager",
        "offset": 0,
        "slot": "8",
        "type": "t_contract(IStaking)2132"
      },
      {
        "astId": 757,
        "contract": "contracts/SubscriptionData.sol:SubscriptionData",
        "label": "stakedToken",
        "offset": 0,
        "slot": "9",
        "type": "t_contract(IERC20)181"
      },
      {
        "astId": 759,
        "contract": "contracts/SubscriptionData.sol:SubscriptionData",
        "label": "discountsEnabled",
        "offset": 20,
        "slot": "9",
        "type": "t_bool"
      },
      {
        "astId": 768,
        "contract": "contracts/SubscriptionData.sol:SubscriptionData",
        "label": "discountSlabs",
        "offset": 0,
        "slot": "10",
        "type": "t_array(t_struct(Discount)764_storage)dyn_storage"
      },
      {
        "astId": 788,
        "contract": "contracts/SubscriptionData.sol:SubscriptionData",
        "label": "acceptedTokens",
        "offset": 0,
        "slot": "11",
        "type": "t_mapping(t_address,t_struct(Token)783_storage)"
      },
      {
        "astId": 792,
        "contract": "contracts/SubscriptionData.sol:SubscriptionData",
        "label": "isAcceptedToken",
        "offset": 0,
        "slot": "12",
        "type": "t_mapping(t_address,t_bool)"
      },
      {
        "astId": 795,
        "contract": "contracts/SubscriptionData.sol:SubscriptionData",
        "label": "tokens",
        "offset": 0,
        "slot": "13",
        "type": "t_array(t_address)dyn_storage"
      },
      {
        "astId": 800,
        "contract": "contracts/SubscriptionData.sol:SubscriptionData",
        "label": "usdPricePrecision",
        "offset": 0,
        "slot": "14",
        "type": "t_uint128"
      }
    ],
    "types": {
      "t_address": {
        "encoding": "inplace",
        "label": "address",
        "numberOfBytes": "20"
      },
      "t_array(t_address)dyn_storage": {
        "base": "t_address",
        "encoding": "dynamic_array",
        "label": "address[]",
        "numberOfBytes": "32"
      },
      "t_array(t_string_storage)dyn_storage": {
        "base": "t_string_storage",
        "encoding": "dynamic_array",
        "label": "string[]",
        "numberOfBytes": "32"
      },
      "t_array(t_struct(Discount)764_storage)dyn_storage": {
        "base": "t_struct(Discount)764_storage",
        "encoding": "dynamic_array",
        "label": "struct SubscriptionData.Discount[]",
        "numberOfBytes": "32"
      },
      "t_bool": {
        "encoding": "inplace",
        "label": "bool",
        "numberOfBytes": "1"
      },
      "t_contract(IERC20)181": {
        "encoding": "inplace",
        "label": "contract IERC20",
        "numberOfBytes": "20"
      },
      "t_contract(IStaking)2132": {
        "encoding": "inplace",
        "label": "contract IStaking",
        "numberOfBytes": "20"
      },
      "t_mapping(t_address,t_bool)": {
        "encoding": "mapping",
        "key": "t_address",
        "label": "mapping(address => bool)",
        "numberOfBytes": "32",
        "value": "t_bool"
      },
      "t_mapping(t_address,t_struct(Token)783_storage)": {
        "encoding": "mapping",
        "key": "t_address",
        "label": "mapping(address => struct SubscriptionData.Token)",
        "numberOfBytes": "32",
        "value": "t_struct(Token)783_storage"
      },
      "t_mapping(t_string_memory_ptr,t_bool)": {
        "encoding": "mapping",
        "key": "t_string_memory_ptr",
        "label": "mapping(string => bool)",
        "numberOfBytes": "32",
        "value": "t_bool"
      },
      "t_mapping(t_string_memory_ptr,t_uint256)": {
        "encoding": "mapping",
        "key": "t_string_memory_ptr",
        "label": "mapping(string => uint256)",
        "numberOfBytes": "32",
        "value": "t_uint256"
      },
      "t_string_memory_ptr": {
        "encoding": "bytes",
        "label": "string",
        "numberOfBytes": "32"
      },
      "t_string_storage": {
        "encoding": "bytes",
        "label": "string",
        "numberOfBytes": "32"
      },
      "t_struct(Discount)764_storage": {
        "encoding": "inplace",
        "label": "struct SubscriptionData.Discount",
        "members": [
          {
            "astId": 761,
            "contract": "contracts/SubscriptionData.sol:SubscriptionData",
            "label": "amount",
            "offset": 0,
            "slot": "0",
            "type": "t_uint256"
          },
          {
            "astId": 763,
            "contract": "contracts/SubscriptionData.sol:SubscriptionData",
            "label": "percent",
            "offset": 0,
            "slot": "1",
            "type": "t_uint256"
          }
        ],
        "numberOfBytes": "64"
      },
      "t_struct(Token)783_storage": {
        "encoding": "inplace",
        "label": "struct SubscriptionData.Token",
        "members": [
          {
            "astId": 770,
            "contract": "contracts/SubscriptionData.sol:SubscriptionData",
            "label": "symbol",
            "offset": 0,
            "slot": "0",
            "type": "t_string_storage"
          },
          {
            "astId": 772,
            "contract": "contracts/SubscriptionData.sol:SubscriptionData",
            "label": "decimals",
            "offset": 0,
            "slot": "1",
            "type": "t_uint128"
          },
          {
            "astId": 774,
            "contract": "contracts/SubscriptionData.sol:SubscriptionData",
            "label": "tokenAddress",
            "offset": 0,
            "slot": "2",
            "type": "t_address"
          },
          {
            "astId": 776,
            "contract": "contracts/SubscriptionData.sol:SubscriptionData",
            "label": "accepted",
            "offset": 20,
            "slot": "2",
            "type": "t_bool"
          },
          {
            "astId": 778,
            "contract": "contracts/SubscriptionData.sol:SubscriptionData",
            "label": "isChainLinkFeed",
            "offset": 21,
            "slot": "2",
            "type": "t_bool"
          },
          {
            "astId": 780,
            "contract": "contracts/SubscriptionData.sol:SubscriptionData",
            "label": "priceFeedAddress",
            "offset": 0,
            "slot": "3",
            "type": "t_address"
          },
          {
            "astId": 782,
            "contract": "contracts/SubscriptionData.sol:SubscriptionData",
            "label": "priceFeedPrecision",
            "offset": 0,
            "slot": "4",
            "type": "t_uint128"
          }
        ],
        "numberOfBytes": "160"
      },
      "t_uint128": {
        "encoding": "inplace",
        "label": "uint128",
        "numberOfBytes": "16"
      },
      "t_uint256": {
        "encoding": "inplace",
        "label": "uint256",
        "numberOfBytes": "32"
      }
    }
  }
}