{
  "address": "0xB785244615c039831636A412ba6f57F835878D99",
  "abi": [
    {
      "inputs": [
        {
          "internalType": "uint256",
          "name": "_timeStampGap",
          "type": "uint256"
        },
        {
          "internalType": "address",
          "name": "_treasury",
          "type": "address"
        },
        {
          "internalType": "address",
          "name": "_company",
          "type": "address"
        },
        {
          "internalType": "address",
          "name": "_data",
          "type": "address"
        },
        {
          "internalType": "address",
          "name": "_trustedForwarder",
          "type": "address"
        }
      ],
      "stateMutability": "nonpayable",
      "type": "constructor"
    },
    {
      "anonymous": false,
      "inputs": [
        {
          "indexed": true,
          "internalType": "address",
          "name": "trustedForwarder",
          "type": "address"
        }
      ],
      "name": "ChangeTrustedForwarder",
      "type": "event"
    },
    {
      "anonymous": false,
      "inputs": [
        {
          "indexed": true,
          "internalType": "address",
          "name": "_company",
          "type": "address"
        }
      ],
      "name": "CompanyPendingSet",
      "type": "event"
    },
    {
      "anonymous": false,
      "inputs": [
        {
          "indexed": true,
          "internalType": "address",
          "name": "_company",
          "type": "address"
        }
      ],
      "name": "CompanySet",
      "type": "event"
    },
    {
      "anonymous": false,
      "inputs": [
        {
          "indexed": true,
          "internalType": "address",
          "name": "token",
          "type": "address"
        },
        {
          "indexed": false,
          "internalType": "uint256",
          "name": "amount",
          "type": "uint256"
        }
      ],
      "name": "CompanyWithdraw",
      "type": "event"
    },
    {
      "anonymous": false,
      "inputs": [
        {
          "indexed": true,
          "internalType": "address",
          "name": "_dataContract",
          "type": "address"
        }
      ],
      "name": "DataContractUpdated",
      "type": "event"
    },
    {
      "anonymous": false,
      "inputs": [
        {
          "indexed": false,
          "internalType": "bool",
          "name": "_status",
          "type": "bool"
        }
      ],
      "name": "DepositStatusChanged",
      "type": "event"
    },
    {
      "anonymous": false,
      "inputs": [
        {
          "indexed": true,
          "internalType": "address",
          "name": "_treasury",
          "type": "address"
        }
      ],
      "name": "TreasurySet",
      "type": "event"
    },
    {
      "anonymous": false,
      "inputs": [
        {
          "indexed": true,
          "internalType": "address",
          "name": "user",
          "type": "address"
        },
        {
          "indexed": true,
          "internalType": "address",
          "name": "token",
          "type": "address"
        },
        {
          "indexed": false,
          "internalType": "uint256",
          "name": "fee",
          "type": "uint256"
        }
      ],
      "name": "UserCharged",
      "type": "event"
    },
    {
      "anonymous": false,
      "inputs": [
        {
          "indexed": true,
          "internalType": "address",
          "name": "user",
          "type": "address"
        },
        {
          "indexed": true,
          "internalType": "address",
          "name": "token",
          "type": "address"
        },
        {
          "indexed": false,
          "internalType": "uint256",
          "name": "deposit",
          "type": "uint256"
        }
      ],
      "name": "UserDeposit",
      "type": "event"
    },
    {
      "anonymous": false,
      "inputs": [
        {
          "indexed": true,
          "internalType": "address",
          "name": "user",
          "type": "address"
        },
        {
          "indexed": true,
          "internalType": "address",
          "name": "token",
          "type": "address"
        },
        {
          "indexed": false,
          "internalType": "uint256",
          "name": "amount",
          "type": "uint256"
        }
      ],
      "name": "UserWithdraw",
      "type": "event"
    },
    {
      "anonymous": false,
      "inputs": [
        {
          "indexed": false,
          "internalType": "bool",
          "name": "_status",
          "type": "bool"
        }
      ],
      "name": "WithdrawalStatusChanged",
      "type": "event"
    },
    {
      "inputs": [
        {
          "internalType": "address",
          "name": "_pendingCompany",
          "type": "address"
        }
      ],
      "name": "approveSetCompany",
      "outputs": [],
      "stateMutability": "nonpayable",
      "type": "function"
    },
    {
      "inputs": [],
      "name": "changeDepositStatus",
      "outputs": [],
      "stateMutability": "nonpayable",
      "type": "function"
    },
    {
      "inputs": [],
      "name": "changeWithdrawalStatus",
      "outputs": [],
      "stateMutability": "nonpayable",
      "type": "function"
    },
    {
      "inputs": [
        {
          "internalType": "address",
          "name": "_user",
          "type": "address"
        },
        {
          "internalType": "string[]",
          "name": "_parameters",
          "type": "string[]"
        },
        {
          "internalType": "uint256[]",
          "name": "_values",
          "type": "uint256[]"
        },
        {
          "internalType": "address",
          "name": "_token",
          "type": "address"
        }
      ],
      "name": "chargeUser",
      "outputs": [],
      "stateMutability": "nonpayable",
      "type": "function"
    },
    {
      "inputs": [],
      "name": "company",
      "outputs": [
        {
          "internalType": "address",
          "name": "",
          "type": "address"
        }
      ],
      "stateMutability": "view",
      "type": "function"
    },
    {
      "inputs": [
        {
          "internalType": "address",
          "name": "",
          "type": "address"
        }
      ],
      "name": "companyRevenue",
      "outputs": [
        {
          "internalType": "uint256",
          "name": "",
          "type": "uint256"
        }
      ],
      "stateMutability": "view",
      "type": "function"
    },
    {
      "inputs": [
        {
          "internalType": "address",
          "name": "_token",
          "type": "address"
        },
        {
          "internalType": "uint256",
          "name": "_amount",
          "type": "uint256"
        }
      ],
      "name": "companyWithdraw",
      "outputs": [],
      "stateMutability": "nonpayable",
      "type": "function"
    },
    {
      "inputs": [
        {
          "internalType": "address",
          "name": "t",
          "type": "address"
        }
      ],
      "name": "getTotalCharges",
      "outputs": [
        {
          "internalType": "uint256",
          "name": "",
          "type": "uint256"
        }
      ],
      "stateMutability": "view",
      "type": "function"
    },
    {
      "inputs": [
        {
          "internalType": "address",
          "name": "t",
          "type": "address"
        }
      ],
      "name": "getTotalDeposit",
      "outputs": [
        {
          "internalType": "uint256",
          "name": "",
          "type": "uint256"
        }
      ],
      "stateMutability": "view",
      "type": "function"
    },
    {
      "inputs": [
        {
          "internalType": "address",
          "name": "t",
          "type": "address"
        }
      ],
      "name": "getTotalWithdraws",
      "outputs": [
        {
          "internalType": "uint256",
          "name": "",
          "type": "uint256"
        }
      ],
      "stateMutability": "view",
      "type": "function"
    },
    {
      "inputs": [
        {
          "internalType": "address",
          "name": "t",
          "type": "address"
        }
      ],
      "name": "getUnderlyingPrice",
      "outputs": [
        {
          "internalType": "uint256",
          "name": "underlyingPrice",
          "type": "uint256"
        },
        {
          "internalType": "uint256",
          "name": "timestamp",
          "type": "uint256"
        }
      ],
      "stateMutability": "view",
      "type": "function"
    },
    {
      "inputs": [
        {
          "internalType": "address",
          "name": "_user",
          "type": "address"
        },
        {
          "internalType": "address",
          "name": "_token",
          "type": "address"
        }
      ],
      "name": "getUserData",
      "outputs": [
        {
          "components": [
            {
              "internalType": "uint256",
              "name": "deposit",
              "type": "uint256"
            },
            {
              "internalType": "uint256",
              "name": "balance",
              "type": "uint256"
            }
          ],
          "internalType": "struct SubscriptionDePay.UserData",
          "name": "",
          "type": "tuple"
        }
      ],
      "stateMutability": "view",
      "type": "function"
    },
    {
      "inputs": [
        {
          "internalType": "address",
          "name": "forwarder",
          "type": "address"
        }
      ],
      "name": "isTrustedForwarder",
      "outputs": [
        {
          "internalType": "bool",
          "name": "",
          "type": "bool"
        }
      ],
      "stateMutability": "view",
      "type": "function"
    },
    {
      "inputs": [],
      "name": "pauseDeposit",
      "outputs": [
        {
          "internalType": "bool",
          "name": "",
          "type": "bool"
        }
      ],
      "stateMutability": "view",
      "type": "function"
    },
    {
      "inputs": [],
      "name": "pauseWithdrawal",
      "outputs": [
        {
          "internalType": "bool",
          "name": "",
          "type": "bool"
        }
      ],
      "stateMutability": "view",
      "type": "function"
    },
    {
      "inputs": [],
      "name": "pendingCompany",
      "outputs": [
        {
          "internalType": "address",
          "name": "",
          "type": "address"
        }
      ],
      "stateMutability": "view",
      "type": "function"
    },
    {
      "inputs": [
        {
          "internalType": "address",
          "name": "_company",
          "type": "address"
        }
      ],
      "name": "setCompany",
      "outputs": [],
      "stateMutability": "nonpayable",
      "type": "function"
    },
    {
      "inputs": [
        {
          "internalType": "address",
          "name": "_treasury",
          "type": "address"
        }
      ],
      "name": "setTreasury",
      "outputs": [],
      "stateMutability": "nonpayable",
      "type": "function"
    },
    {
      "inputs": [
        {
          "internalType": "address",
          "name": "forwarder",
          "type": "address"
        }
      ],
      "name": "setTrustedForwarder",
      "outputs": [],
      "stateMutability": "nonpayable",
      "type": "function"
    },
    {
      "inputs": [],
      "name": "subscriptionData",
      "outputs": [
        {
          "internalType": "contract ISubscriptionData",
          "name": "",
          "type": "address"
        }
      ],
      "stateMutability": "view",
      "type": "function"
    },
    {
      "inputs": [],
      "name": "timeStampGap",
      "outputs": [
        {
          "internalType": "uint256",
          "name": "",
          "type": "uint256"
        }
      ],
      "stateMutability": "view",
      "type": "function"
    },
    {
      "inputs": [
        {
          "internalType": "address",
          "name": "",
          "type": "address"
        }
      ],
      "name": "totalCharges",
      "outputs": [
        {
          "internalType": "uint256",
          "name": "",
          "type": "uint256"
        }
      ],
      "stateMutability": "view",
      "type": "function"
    },
    {
      "inputs": [
        {
          "internalType": "address",
          "name": "",
          "type": "address"
        }
      ],
      "name": "totalDeposit",
      "outputs": [
        {
          "internalType": "uint256",
          "name": "",
          "type": "uint256"
        }
      ],
      "stateMutability": "view",
      "type": "function"
    },
    {
      "inputs": [
        {
          "internalType": "address",
          "name": "",
          "type": "address"
        }
      ],
      "name": "totalWithdraws",
      "outputs": [
        {
          "internalType": "uint256",
          "name": "",
          "type": "uint256"
        }
      ],
      "stateMutability": "view",
      "type": "function"
    },
    {
      "inputs": [],
      "name": "treasury",
      "outputs": [
        {
          "internalType": "address",
          "name": "",
          "type": "address"
        }
      ],
      "stateMutability": "view",
      "type": "function"
    },
    {
      "inputs": [
        {
          "internalType": "address",
          "name": "d",
          "type": "address"
        }
      ],
      "name": "updateDataContract",
      "outputs": [],
      "stateMutability": "nonpayable",
      "type": "function"
    },
    {
      "inputs": [
        {
          "internalType": "uint256",
          "name": "_timeStampGap",
          "type": "uint256"
        }
      ],
      "name": "updateTimeStampGap",
      "outputs": [],
      "stateMutability": "nonpayable",
      "type": "function"
    },
    {
      "inputs": [
        {
          "internalType": "address",
          "name": "",
          "type": "address"
        },
        {
          "internalType": "address",
          "name": "",
          "type": "address"
        }
      ],
      "name": "userData",
      "outputs": [
        {
          "internalType": "uint256",
          "name": "deposit",
          "type": "uint256"
        },
        {
          "internalType": "uint256",
          "name": "balance",
          "type": "uint256"
        }
      ],
      "stateMutability": "view",
      "type": "function"
    },
    {
      "inputs": [
        {
          "internalType": "address",
          "name": "_token",
          "type": "address"
        },
        {
          "internalType": "uint256",
          "name": "_amount",
          "type": "uint256"
        }
      ],
      "name": "userDeposit",
      "outputs": [],
      "stateMutability": "nonpayable",
      "type": "function"
    },
    {
      "inputs": [
        {
          "internalType": "address",
          "name": "_token",
          "type": "address"
        },
        {
          "internalType": "uint256",
          "name": "_amount",
          "type": "uint256"
        }
      ],
      "name": "userWithdraw",
      "outputs": [],
      "stateMutability": "nonpayable",
      "type": "function"
    }
  ],
  "transactionHash": "0x1f2212d64e32c0566bac489fe854e778cbfef8cf86ddc49d08756408692703f0",
  "args": [
    86400,
    "0x562937835cdD5C92F54B94Df658Fd3b50A68ecD5",
    "0x562937835cdD5C92F54B94Df658Fd3b50A68ecD5",
    "0x880563B3DC3058004Ea0bE536ea9f112936F447c",
    "0x69FB8Dca8067A5D38703b9e8b39cf2D51473E4b4"
  ],
  "numDeployments": 1,
  "solcInputHash": "c21f80de6fda9fe7dff54dd8aa7e962f",
  "bytecode": "0x60806040523480156200001157600080fd5b506040516200605d3803806200605d833981810160405281019062000037919062000395565b8082600160008190555081600160006101000a81548173ffffffffffffffffffffffffffffffffffffffff021916908373ffffffffffffffffffffffffffffffffffffffff16021790555080600260006101000a81548173ffffffffffffffffffffffffffffffffffffffff021916908373ffffffffffffffffffffffffffffffffffffffff1602179055505050600073ffffffffffffffffffffffffffffffffffffffff168473ffffffffffffffffffffffffffffffffffffffff160362000137576040517f08c379a00000000000000000000000000000000000000000000000000000000081526004016200012e90620004a4565b60405180910390fd5b600073ffffffffffffffffffffffffffffffffffffffff168373ffffffffffffffffffffffffffffffffffffffff1603620001a9576040517f08c379a0000000000000000000000000000000000000000000000000000000008152600401620001a0906200053c565b60405180910390fd5b600073ffffffffffffffffffffffffffffffffffffffff168273ffffffffffffffffffffffffffffffffffffffff16036200021b576040517f08c379a00000000000000000000000000000000000000000000000000000000081526004016200021290620005fa565b60405180910390fd5b81600260006101000a81548173ffffffffffffffffffffffffffffffffffffffff021916908373ffffffffffffffffffffffffffffffffffffffff16021790555083600360006101000a81548173ffffffffffffffffffffffffffffffffffffffff021916908373ffffffffffffffffffffffffffffffffffffffff16021790555082600460006101000a81548173ffffffffffffffffffffffffffffffffffffffff021916908373ffffffffffffffffffffffffffffffffffffffff1602179055508460078190555050505050506200061c565b600080fd5b6000819050919050565b6200030a81620002f5565b81146200031657600080fd5b50565b6000815190506200032a81620002ff565b92915050565b600073ffffffffffffffffffffffffffffffffffffffff82169050919050565b60006200035d8262000330565b9050919050565b6200036f8162000350565b81146200037b57600080fd5b50565b6000815190506200038f8162000364565b92915050565b600080600080600060a08688031215620003b457620003b3620002f0565b5b6000620003c48882890162000319565b9550506020620003d7888289016200037e565b9450506040620003ea888289016200037e565b9350506060620003fd888289016200037e565b925050608062000410888289016200037e565b9150509295509295909350565b600082825260208201905092915050565b7f53706865726f6e537562736372697074696f6e5061796d656e74733a20496e7660008201527f616c6964206164647265737320666f7220747265617375727900000000000000602082015250565b60006200048c6039836200041d565b915062000499826200042e565b604082019050919050565b60006020820190508181036000830152620004bf816200047d565b9050919050565b7f53706865726f6e537562736372697074696f6e5061796d656e74733a20496e7660008201527f616c6964206164647265737320666f7220636f6d70616e790000000000000000602082015250565b6000620005246038836200041d565b91506200053182620004c6565b604082019050919050565b60006020820190508181036000830152620005578162000515565b9050919050565b7f53706865726f6e537562736372697074696f6e5061796d656e74733a20496e7660008201527f616c69642061646472657373206f6620737562736372697074696f6e2064617460208201527f6120636f6e747261637400000000000000000000000000000000000000000000604082015250565b6000620005e2604a836200041d565b9150620005ef826200055e565b606082019050919050565b600060208201905081810360008301526200061581620005d3565b9050919050565b615a31806200062c6000396000f3fe608060405234801561001057600080fd5b50600436106101da5760003560e01c806393f6c55411610104578063d2abc393116100a2578063e8a0006a11610071578063e8a0006a14610554578063f0f4426014610572578063f4eeefe91461058e578063fc57d4df146105be576101da565b8063d2abc393146104d0578063d4e036c314610500578063da7422281461051c578063dccd585814610538576101da565b8063b46610dd116100de578063b46610dd1461045e578063b52d734314610468578063b896a2a014610484578063c79fd184146104a0576101da565b806393f6c554146104065780639c69c78214610424578063a8db244514610442576101da565b80635ba06d251161017c578063768e5b271161014b578063768e5b271461036b578063850a460b1461039c578063857184d1146103cc57806390b231aa146103fc576101da565b80635ba06d25146102f357806361d027b31461031157806369026e881461032f5780636904c94d1461034d576101da565b8063311404f5116101b8578063311404f51461025b5780633e458a8e14610277578063572b6c051461029357806358ae65df146102c3576101da565b80631084e812146101df57806323b467981461020f5780632f6c74991461022b575b600080fd5b6101f960048036038101906101f49190613937565b6105ef565b604051610206919061397d565b60405180910390f35b61022960048036038101906102249190613cb3565b610607565b005b61024560048036038101906102409190613937565b610d11565b604051610252919061397d565b60405180910390f35b61027560048036038101906102709190613d52565b610d5a565b005b610291600480360381019061028c9190613d7f565b610e8b565b005b6102ad60048036038101906102a89190613937565b6112db565b6040516102ba9190613dda565b60405180910390f35b6102dd60048036038101906102d89190613937565b611335565b6040516102ea919061397d565b60405180910390f35b6102fb61134d565b604051610308919061397d565b60405180910390f35b610319611353565b6040516103269190613e04565b60405180910390f35b610337611379565b6040516103449190613dda565b60405180910390f35b61035561138c565b6040516103629190613e04565b60405180910390f35b61038560048036038101906103809190613e1f565b6113b2565b604051610393929190613e5f565b60405180910390f35b6103b660048036038101906103b19190613937565b6113e3565b6040516103c3919061397d565b60405180910390f35b6103e660048036038101906103e19190613937565b6113fb565b6040516103f3919061397d565b60405180910390f35b610404611444565b005b61040e61159a565b60405161041b9190613e04565b60405180910390f35b61042c6115c0565b6040516104399190613dda565b60405180910390f35b61045c60048036038101906104579190613937565b6115d3565b005b61046661182d565b005b610482600480360381019061047d9190613d7f565b611983565b005b61049e60048036038101906104999190613937565b611e69565b005b6104ba60048036038101906104b59190613937565b612043565b6040516104c7919061397d565b60405180910390f35b6104ea60048036038101906104e59190613937565b61208c565b6040516104f7919061397d565b60405180910390f35b61051a60048036038101906105159190613d7f565b6120a4565b005b61053660048036038101906105319190613937565b612454565b005b610552600480360381019061054d9190613937565b612627565b005b61055c612972565b6040516105699190613ee7565b60405180910390f35b61058c60048036038101906105879190613937565b612998565b005b6105a860048036038101906105a39190613e1f565b612b94565b6040516105b59190613f40565b60405180910390f35b6105d860048036038101906105d39190613937565b612c3f565b6040516105e6929190613e5f565b60405180910390f35b60096020528060005260406000206000915090505481565b600260009054906101000a900473ffffffffffffffffffffffffffffffffffffffff1673ffffffffffffffffffffffffffffffffffffffff1663f3ae241561064d612eaf565b6040518263ffffffff1660e01b81526004016106699190613e04565b6020604051808303816000875af1158015610688573d6000803e3d6000fd5b505050506040513d601f19601f820116820180604052508101906106ac9190613f87565b6106eb576040517f08c379a00000000000000000000000000000000000000000000000000000000081526004016106e290614037565b60405180910390fd5b600073ffffffffffffffffffffffffffffffffffffffff168473ffffffffffffffffffffffffffffffffffffffff160361075a576040517f08c379a0000000000000000000000000000000000000000000000000000000008152600401610751906140c9565b60405180910390fd5b600073ffffffffffffffffffffffffffffffffffffffff168173ffffffffffffffffffffffffffffffffffffffff16036107c9576040517f08c379a00000000000000000000000000000000000000000000000000000000081526004016107c09061415b565b60405180910390fd5b600083511161080d576040517f08c379a0000000000000000000000000000000000000000000000000000000008152600401610804906141ed565b60405180910390fd5b6000825111610851576040517f08c379a00000000000000000000000000000000000000000000000000000000081526004016108489061427f565b60405180910390fd5b8151835114610895576040517f08c379a000000000000000000000000000000000000000000000000000000000815260040161088c90614311565b60405180910390fd5b600260009054906101000a900473ffffffffffffffffffffffffffffffffffffffff1673ffffffffffffffffffffffffffffffffffffffff16633b6e750f826040518263ffffffff1660e01b81526004016108f09190613e04565b6020604051808303816000875af115801561090f573d6000803e3d6000fd5b505050506040513d601f19601f820116820180604052508101906109339190613f87565b610972576040517f08c379a0000000000000000000000000000000000000000000000000000000008152600401610969906143a3565b60405180910390fd5b6000805b8451811015610a7757600260009054906101000a900473ffffffffffffffffffffffffffffffffffffffff1673ffffffffffffffffffffffffffffffffffffffff166314de7a248683815181106109d0576109cf6143c3565b5b60200260200101516040518263ffffffff1660e01b81526004016109f49190614460565b602060405180830381865afa158015610a11573d6000803e3d6000fd5b505050506040513d601f19601f82011682018060405250810190610a359190614497565b848281518110610a4857610a476143c3565b5b6020026020010151610a5a91906144f3565b82610a659190614535565b9150610a7081612ebe565b9050610976565b506000610a848683612ecb565b82610a8f9190614569565b90506000610a9d8285613302565b9050600660008873ffffffffffffffffffffffffffffffffffffffff1673ffffffffffffffffffffffffffffffffffffffff16815260200190815260200160002060008573ffffffffffffffffffffffffffffffffffffffff1673ffffffffffffffffffffffffffffffffffffffff16815260200190815260200160002060010154811115610b61576040517f08c379a0000000000000000000000000000000000000000000000000000000008152600401610b5890614635565b60405180910390fd5b80600660008973ffffffffffffffffffffffffffffffffffffffff1673ffffffffffffffffffffffffffffffffffffffff16815260200190815260200160002060008673ffffffffffffffffffffffffffffffffffffffff1673ffffffffffffffffffffffffffffffffffffffff1681526020019081526020016000206001016000828254610bf09190614569565b9250508190555080600a60008673ffffffffffffffffffffffffffffffffffffffff1673ffffffffffffffffffffffffffffffffffffffff1681526020019081526020016000206000828254610c469190614535565b9250508190555080600c60008673ffffffffffffffffffffffffffffffffffffffff1673ffffffffffffffffffffffffffffffffffffffff1681526020019081526020016000206000828254610c9c9190614535565b925050819055508373ffffffffffffffffffffffffffffffffffffffff168773ffffffffffffffffffffffffffffffffffffffff167faf7dca4b3e9228b9779dd10926b90dae78964927a1f9d2bce660a5f87d5c772083604051610d00919061397d565b60405180910390a350505050505050565b6000600b60008373ffffffffffffffffffffffffffffffffffffffff1673ffffffffffffffffffffffffffffffffffffffff168152602001908152602001600020549050919050565b600260009054906101000a900473ffffffffffffffffffffffffffffffffffffffff1673ffffffffffffffffffffffffffffffffffffffff1663f3ae2415610da0612eaf565b6040518263ffffffff1660e01b8152600401610dbc9190613e04565b6020604051808303816000875af1158015610ddb573d6000803e3d6000fd5b505050506040513d601f19601f82011682018060405250810190610dff9190613f87565b610e3e576040517f08c379a0000000000000000000000000000000000000000000000000000000008152600401610e3590614037565b60405180910390fd5b60008111610e81576040517f08c379a0000000000000000000000000000000000000000000000000000000008152600401610e78906146ed565b60405180910390fd5b8060078190555050565b600260005403610ed0576040517f08c379a0000000000000000000000000000000000000000000000000000000008152600401610ec790614759565b60405180910390fd5b6002600081905550600860019054906101000a900460ff1615610f28576040517f08c379a0000000000000000000000000000000000000000000000000000000008152600401610f1f906147c5565b60405180910390fd5b60008111610f6b576040517f08c379a0000000000000000000000000000000000000000000000000000000008152600401610f6290614857565b60405180910390fd5b60066000610f77612eaf565b73ffffffffffffffffffffffffffffffffffffffff1673ffffffffffffffffffffffffffffffffffffffff16815260200190815260200160002060008373ffffffffffffffffffffffffffffffffffffffff1673ffffffffffffffffffffffffffffffffffffffff16815260200190815260200160002060010154811115611034576040517f08c379a000000000000000000000000000000000000000000000000000000000815260040161102b9061490f565b60405180910390fd5b6000829050818173ffffffffffffffffffffffffffffffffffffffff1663dd62ed3e600360009054906101000a900473ffffffffffffffffffffffffffffffffffffffff16306040518363ffffffff1660e01b815260040161109792919061492f565b602060405180830381865afa1580156110b4573d6000803e3d6000fd5b505050506040513d601f19601f820116820180604052508101906110d89190614497565b1015611119576040517f08c379a0000000000000000000000000000000000000000000000000000000008152600401611110906149ca565b60405180910390fd5b8160066000611126612eaf565b73ffffffffffffffffffffffffffffffffffffffff1673ffffffffffffffffffffffffffffffffffffffff16815260200190815260200160002060008573ffffffffffffffffffffffffffffffffffffffff1673ffffffffffffffffffffffffffffffffffffffff16815260200190815260200160002060010160008282546111af9190614569565b9250508190555081600b60008573ffffffffffffffffffffffffffffffffffffffff1673ffffffffffffffffffffffffffffffffffffffff16815260200190815260200160002060008282546112059190614535565b92505081905550611262600360009054906101000a900473ffffffffffffffffffffffffffffffffffffffff1661123a612eaf565b848473ffffffffffffffffffffffffffffffffffffffff166134e1909392919063ffffffff16565b8273ffffffffffffffffffffffffffffffffffffffff16611281612eaf565b73ffffffffffffffffffffffffffffffffffffffff167f6985a6dd52aeb8194df40b7af2f362f362440affc39c1314649abc28dbf6b628846040516112c6919061397d565b60405180910390a35060016000819055505050565b6000600160009054906101000a900473ffffffffffffffffffffffffffffffffffffffff1673ffffffffffffffffffffffffffffffffffffffff168273ffffffffffffffffffffffffffffffffffffffff16149050919050565b600c6020528060005260406000206000915090505481565b60075481565b600360009054906101000a900473ffffffffffffffffffffffffffffffffffffffff1681565b600860009054906101000a900460ff1681565b600460009054906101000a900473ffffffffffffffffffffffffffffffffffffffff1681565b6006602052816000526040600020602052806000526040600020600091509150508060000154908060010154905082565b600a6020528060005260406000206000915090505481565b6000600960008373ffffffffffffffffffffffffffffffffffffffff1673ffffffffffffffffffffffffffffffffffffffff168152602001908152602001600020549050919050565b600260009054906101000a900473ffffffffffffffffffffffffffffffffffffffff1673ffffffffffffffffffffffffffffffffffffffff1663f3ae241561148a612eaf565b6040518263ffffffff1660e01b81526004016114a69190613e04565b6020604051808303816000875af11580156114c5573d6000803e3d6000fd5b505050506040513d601f19601f820116820180604052508101906114e99190613f87565b611528576040517f08c379a000000000000000000000000000000000000000000000000000000000815260040161151f90614037565b60405180910390fd5b600860019054906101000a900460ff1615600860016101000a81548160ff0219169083151502179055507f0f26e7c17312ed71449e88e5161c19e5fd82e9f922606f6c8c8ff54199c85db1600860019054906101000a900460ff166040516115909190613dda565b60405180910390a1565b600560009054906101000a900473ffffffffffffffffffffffffffffffffffffffff1681565b600860019054906101000a900460ff1681565b60006115dd612eaf565b9050600460009054906101000a900473ffffffffffffffffffffffffffffffffffffffff1673ffffffffffffffffffffffffffffffffffffffff168173ffffffffffffffffffffffffffffffffffffffff1614806116d55750600260009054906101000a900473ffffffffffffffffffffffffffffffffffffffff1673ffffffffffffffffffffffffffffffffffffffff1663f3ae2415826040518263ffffffff1660e01b81526004016116919190613e04565b6020604051808303816000875af11580156116b0573d6000803e3d6000fd5b505050506040513d601f19601f820116820180604052508101906116d49190613f87565b5b611714576040517f08c379a000000000000000000000000000000000000000000000000000000000815260040161170b90614a5c565b60405180910390fd5b600073ffffffffffffffffffffffffffffffffffffffff168273ffffffffffffffffffffffffffffffffffffffff1603611783576040517f08c379a000000000000000000000000000000000000000000000000000000000815260040161177a90614aee565b60405180910390fd5b81600560006101000a81548173ffffffffffffffffffffffffffffffffffffffff021916908373ffffffffffffffffffffffffffffffffffffffff160217905550600560009054906101000a900473ffffffffffffffffffffffffffffffffffffffff1673ffffffffffffffffffffffffffffffffffffffff167f4808dc8179da2670285614f9959b76110abd9627810983c594141b30e653a4b060405160405180910390a25050565b600260009054906101000a900473ffffffffffffffffffffffffffffffffffffffff1673ffffffffffffffffffffffffffffffffffffffff1663f3ae2415611873612eaf565b6040518263ffffffff1660e01b815260040161188f9190613e04565b6020604051808303816000875af11580156118ae573d6000803e3d6000fd5b505050506040513d601f19601f820116820180604052508101906118d29190613f87565b611911576040517f08c379a000000000000000000000000000000000000000000000000000000000815260040161190890614037565b60405180910390fd5b600860009054906101000a900460ff1615600860006101000a81548160ff0219169083151502179055507f8d3d8e4541c6b3368eb82d7b621f414931cb65410379efff5908345fc1366b0c600860009054906101000a900460ff166040516119799190613dda565b60405180910390a1565b6002600054036119c8576040517f08c379a00000000000000000000000000000000000000000000000000000000081526004016119bf90614759565b60405180910390fd5b6002600081905550600860009054906101000a900460ff1615611a20576040517f08c379a0000000000000000000000000000000000000000000000000000000008152600401611a1790614b5a565b60405180910390fd5b600260009054906101000a900473ffffffffffffffffffffffffffffffffffffffff1673ffffffffffffffffffffffffffffffffffffffff16633b6e750f836040518263ffffffff1660e01b8152600401611a7b9190613e04565b6020604051808303816000875af1158015611a9a573d6000803e3d6000fd5b505050506040513d601f19601f82011682018060405250810190611abe9190613f87565b611afd576040517f08c379a0000000000000000000000000000000000000000000000000000000008152600401611af4906143a3565b60405180910390fd5b60008111611b40576040517f08c379a0000000000000000000000000000000000000000000000000000000008152600401611b3790614bec565b60405180910390fd5b6000829050818173ffffffffffffffffffffffffffffffffffffffff1663dd62ed3e611b6a612eaf565b306040518363ffffffff1660e01b8152600401611b8892919061492f565b602060405180830381865afa158015611ba5573d6000803e3d6000fd5b505050506040513d601f19601f82011682018060405250810190611bc99190614497565b1015611c0a576040517f08c379a0000000000000000000000000000000000000000000000000000000008152600401611c01906149ca565b60405180910390fd5b611c60611c15612eaf565b600360009054906101000a900473ffffffffffffffffffffffffffffffffffffffff16848473ffffffffffffffffffffffffffffffffffffffff166134e1909392919063ffffffff16565b81600960008573ffffffffffffffffffffffffffffffffffffffff1673ffffffffffffffffffffffffffffffffffffffff1681526020019081526020016000206000828254611caf9190614535565b925050819055508160066000611cc3612eaf565b73ffffffffffffffffffffffffffffffffffffffff1673ffffffffffffffffffffffffffffffffffffffff16815260200190815260200160002060008573ffffffffffffffffffffffffffffffffffffffff1673ffffffffffffffffffffffffffffffffffffffff1681526020019081526020016000206000016000828254611d4c9190614535565b925050819055508160066000611d60612eaf565b73ffffffffffffffffffffffffffffffffffffffff1673ffffffffffffffffffffffffffffffffffffffff16815260200190815260200160002060008573ffffffffffffffffffffffffffffffffffffffff1673ffffffffffffffffffffffffffffffffffffffff1681526020019081526020016000206001016000828254611de99190614535565b925050819055508273ffffffffffffffffffffffffffffffffffffffff16611e0f612eaf565b73ffffffffffffffffffffffffffffffffffffffff167f3bc57f469ad6d10d7723ea226cd22bd2b9e527def2b529f6ab44645a1668958284604051611e54919061397d565b60405180910390a35060016000819055505050565b600260009054906101000a900473ffffffffffffffffffffffffffffffffffffffff1673ffffffffffffffffffffffffffffffffffffffff1663f3ae2415611eaf612eaf565b6040518263ffffffff1660e01b8152600401611ecb9190613e04565b6020604051808303816000875af1158015611eea573d6000803e3d6000fd5b505050506040513d601f19601f82011682018060405250810190611f0e9190613f87565b611f4d576040517f08c379a0000000000000000000000000000000000000000000000000000000008152600401611f4490614037565b60405180910390fd5b600073ffffffffffffffffffffffffffffffffffffffff168173ffffffffffffffffffffffffffffffffffffffff1603611fbc576040517f08c379a0000000000000000000000000000000000000000000000000000000008152600401611fb390614ca4565b60405180910390fd5b80600260006101000a81548173ffffffffffffffffffffffffffffffffffffffff021916908373ffffffffffffffffffffffffffffffffffffffff1602179055508073ffffffffffffffffffffffffffffffffffffffff167ff7fd4c84b82e320257959260e8c81b9c57a42429e57de3b4b60648253461027860405160405180910390a250565b6000600a60008373ffffffffffffffffffffffffffffffffffffffff1673ffffffffffffffffffffffffffffffffffffffff168152602001908152602001600020549050919050565b600b6020528060005260406000206000915090505481565b6002600054036120e9576040517f08c379a00000000000000000000000000000000000000000000000000000000081526004016120e090614759565b60405180910390fd5b6002600081905550600460009054906101000a900473ffffffffffffffffffffffffffffffffffffffff1673ffffffffffffffffffffffffffffffffffffffff16612132612eaf565b73ffffffffffffffffffffffffffffffffffffffff1614612188576040517f08c379a000000000000000000000000000000000000000000000000000000000815260040161217f90614d10565b60405180910390fd5b600081116121cb576040517f08c379a00000000000000000000000000000000000000000000000000000000081526004016121c290614da2565b60405180910390fd5b600c60008373ffffffffffffffffffffffffffffffffffffffff1673ffffffffffffffffffffffffffffffffffffffff1681526020019081526020016000205481111561224d576040517f08c379a000000000000000000000000000000000000000000000000000000000815260040161224490614e5a565b60405180910390fd5b6000829050818173ffffffffffffffffffffffffffffffffffffffff1663dd62ed3e600360009054906101000a900473ffffffffffffffffffffffffffffffffffffffff16306040518363ffffffff1660e01b81526004016122b092919061492f565b602060405180830381865afa1580156122cd573d6000803e3d6000fd5b505050506040513d601f19601f820116820180604052508101906122f19190614497565b1015612332576040517f08c379a0000000000000000000000000000000000000000000000000000000008152600401612329906149ca565b60405180910390fd5b81600c60008573ffffffffffffffffffffffffffffffffffffffff1673ffffffffffffffffffffffffffffffffffffffff16815260200190815260200160002060008282546123819190614569565b925050819055506123f9600360009054906101000a900473ffffffffffffffffffffffffffffffffffffffff16600460009054906101000a900473ffffffffffffffffffffffffffffffffffffffff16848473ffffffffffffffffffffffffffffffffffffffff166134e1909392919063ffffffff16565b8273ffffffffffffffffffffffffffffffffffffffff167f02c06d49407e00b9234fbfd019eb7182c4c33ee7412db4c28e5cb5969a6ca9b28360405161243f919061397d565b60405180910390a25060016000819055505050565b600073ffffffffffffffffffffffffffffffffffffffff168173ffffffffffffffffffffffffffffffffffffffff16036124c3576040517f08c379a00000000000000000000000000000000000000000000000000000000081526004016124ba90614ec6565b60405180910390fd5b600260009054906101000a900473ffffffffffffffffffffffffffffffffffffffff1673ffffffffffffffffffffffffffffffffffffffff1663f3ae2415336040518263ffffffff1660e01b815260040161251e9190613e04565b6020604051808303816000875af115801561253d573d6000803e3d6000fd5b505050506040513d601f19601f820116820180604052508101906125619190613f87565b6125a0576040517f08c379a000000000000000000000000000000000000000000000000000000000815260040161259790614f58565b60405180910390fd5b80600160006101000a81548173ffffffffffffffffffffffffffffffffffffffff021916908373ffffffffffffffffffffffffffffffffffffffff1602179055508073ffffffffffffffffffffffffffffffffffffffff167f78e4799a3a5df23ad7ce725d1c9379640feb1547d54e887bc70beb9c6d97406860405160405180910390a250565b600260009054906101000a900473ffffffffffffffffffffffffffffffffffffffff1673ffffffffffffffffffffffffffffffffffffffff1663f3ae241561266d612eaf565b6040518263ffffffff1660e01b81526004016126899190613e04565b6020604051808303816000875af11580156126a8573d6000803e3d6000fd5b505050506040513d601f19601f820116820180604052508101906126cc9190613f87565b61270b576040517f08c379a000000000000000000000000000000000000000000000000000000000815260040161270290614037565b60405180910390fd5b600073ffffffffffffffffffffffffffffffffffffffff16600560009054906101000a900473ffffffffffffffffffffffffffffffffffffffff1673ffffffffffffffffffffffffffffffffffffffff160361279c576040517f08c379a000000000000000000000000000000000000000000000000000000000815260040161279390614aee565b60405180910390fd5b600073ffffffffffffffffffffffffffffffffffffffff168173ffffffffffffffffffffffffffffffffffffffff16141580156128265750600560009054906101000a900473ffffffffffffffffffffffffffffffffffffffff1673ffffffffffffffffffffffffffffffffffffffff168173ffffffffffffffffffffffffffffffffffffffff16145b612865576040517f08c379a000000000000000000000000000000000000000000000000000000000815260040161285c90614f9e565b60405180910390fd5b600560009054906101000a900473ffffffffffffffffffffffffffffffffffffffff16600460006101000a81548173ffffffffffffffffffffffffffffffffffffffff021916908373ffffffffffffffffffffffffffffffffffffffff1602179055506000600560006101000a81548173ffffffffffffffffffffffffffffffffffffffff021916908373ffffffffffffffffffffffffffffffffffffffff160217905550600460009054906101000a900473ffffffffffffffffffffffffffffffffffffffff1673ffffffffffffffffffffffffffffffffffffffff167f4ea26810d7c58a3bd8550a4c21eb8d554000a9ff6bc692f366d0a5cdc4d730dd60405160405180910390a250565b600260009054906101000a900473ffffffffffffffffffffffffffffffffffffffff1681565b600260009054906101000a900473ffffffffffffffffffffffffffffffffffffffff1673ffffffffffffffffffffffffffffffffffffffff1663f3ae24156129de612eaf565b6040518263ffffffff1660e01b81526004016129fa9190613e04565b6020604051808303816000875af1158015612a19573d6000803e3d6000fd5b505050506040513d601f19601f82011682018060405250810190612a3d9190613f87565b612a7c576040517f08c379a0000000000000000000000000000000000000000000000000000000008152600401612a7390614037565b60405180910390fd5b600073ffffffffffffffffffffffffffffffffffffffff168173ffffffffffffffffffffffffffffffffffffffff1603612aeb576040517f08c379a0000000000000000000000000000000000000000000000000000000008152600401612ae290615030565b60405180910390fd5b80600360006101000a81548173ffffffffffffffffffffffffffffffffffffffff021916908373ffffffffffffffffffffffffffffffffffffffff160217905550600360009054906101000a900473ffffffffffffffffffffffffffffffffffffffff1673ffffffffffffffffffffffffffffffffffffffff167f3c864541ef71378c6229510ed90f376565ee42d9c5e0904a984a9e863e6db44f60405160405180910390a250565b612b9c6138ab565b600660008473ffffffffffffffffffffffffffffffffffffffff1673ffffffffffffffffffffffffffffffffffffffff16815260200190815260200160002060008373ffffffffffffffffffffffffffffffffffffffff1673ffffffffffffffffffffffffffffffffffffffff16815260200190815260200160002060405180604001604052908160008201548152602001600182015481525050905092915050565b600080600080600080600080600260009054906101000a900473ffffffffffffffffffffffffffffffffffffffff1673ffffffffffffffffffffffffffffffffffffffff166382dc4a058a6040518263ffffffff1660e01b8152600401612ca69190613e04565b600060405180830381865afa158015612cc3573d6000803e3d6000fd5b505050506040513d6000823e3d601f19601f82011682018060405250810190612cec919061511d565b9650965096509650509550955083612d39576040517f08c379a0000000000000000000000000000000000000000000000000000000008152600401612d3090615227565b60405180910390fd5b6000808415612dd957600084905060008060008060008573ffffffffffffffffffffffffffffffffffffffff1663feaf968c6040518163ffffffff1660e01b815260040160a060405180830381865afa158015612d9a573d6000803e3d6000fd5b505050506040513d601f19601f82011682018060405250810190612dbe91906152bf565b94509450945094509450839750819650505050505050612e8c565b60008490506000808273ffffffffffffffffffffffffffffffffffffffff1663960384a08c6040518263ffffffff1660e01b8152600401612e1a9190614460565b6040805180830381865afa158015612e36573d6000803e3d6000fd5b505050506040513d601f19601f82011682018060405250810190612e5a919061533a565b91509150816fffffffffffffffffffffffffffffffff169450806fffffffffffffffffffffffffffffffff1693505050505b6000612e9983858a61356a565b905080829a509a50505050505050505050915091565b6000612eb9613604565b905090565b6000600182019050919050565b6000600260009054906101000a900473ffffffffffffffffffffffffffffffffffffffff1673ffffffffffffffffffffffffffffffffffffffff16633648572d6040518163ffffffff1660e01b8152600401602060405180830381865afa158015612f3a573d6000803e3d6000fd5b505050506040513d601f19601f82011682018060405250810190612f5e9190613f87565b612f6b57600090506132fc565b6000600260009054906101000a900473ffffffffffffffffffffffffffffffffffffffff1673ffffffffffffffffffffffffffffffffffffffff166322828cc26040518163ffffffff1660e01b8152600401602060405180830381865afa158015612fda573d6000803e3d6000fd5b505050506040513d601f19601f82011682018060405250810190612ffe919061537a565b905060008173ffffffffffffffffffffffffffffffffffffffff1663f7888aec86600260009054906101000a900473ffffffffffffffffffffffffffffffffffffffff1673ffffffffffffffffffffffffffffffffffffffff1663cc7a262e6040518163ffffffff1660e01b8152600401602060405180830381865afa15801561308c573d6000803e3d6000fd5b505050506040513d601f19601f820116820180604052508101906130b0919061537a565b6040518363ffffffff1660e01b81526004016130cd92919061492f565b602060405180830381865afa1580156130ea573d6000803e3d6000fd5b505050506040513d601f19601f8201168201806040525081019061310e9190614497565b90506000600260009054906101000a900473ffffffffffffffffffffffffffffffffffffffff1673ffffffffffffffffffffffffffffffffffffffff16637aa781226040518163ffffffff1660e01b8152600401600060405180830381865afa15801561317f573d6000803e3d6000fd5b505050506040513d6000823e3d601f19601f820116820180604052508101906131a8919061543e565b90506000600260009054906101000a900473ffffffffffffffffffffffffffffffffffffffff1673ffffffffffffffffffffffffffffffffffffffff1663eb5762fd6040518163ffffffff1660e01b8152600401600060405180830381865afa158015613219573d6000803e3d6000fd5b505050506040513d6000823e3d601f19601f82011682018060405250810190613242919061543e565b90506000825190506000805b828110156132ae57848181518110613269576132686143c3565b5b602002602001015186106132995783818151811061328a576132896143c3565b5b6020026020010151915061329e565b6132ae565b6132a781612ebe565b905061324e565b506a084595161401484a00000060646132c791906144f3565b6a084595161401484a000000828a6132df91906144f3565b6132e991906144f3565b6132f391906154b6565b96505050505050505b92915050565b600080600260009054906101000a900473ffffffffffffffffffffffffffffffffffffffff1673ffffffffffffffffffffffffffffffffffffffff166382dc4a05846040518263ffffffff1660e01b81526004016133609190613e04565b600060405180830381865afa15801561337d573d6000803e3d6000fd5b505050506040513d6000823e3d601f19601f820116820180604052508101906133a6919061511d565b5050505050915050600081600a6133bd919061561a565b905061345c85600260009054906101000a900473ffffffffffffffffffffffffffffffffffffffff1673ffffffffffffffffffffffffffffffffffffffff16634dfeeaad6040518163ffffffff1660e01b81526004016020604051808303816000875af1158015613432573d6000803e3d6000fd5b505050506040513d601f19601f820116820180604052508101906134569190615665565b8461356a565b945060008061346a86612c3f565b91509150600754814261347d9190614569565b11156134be576040517f08c379a00000000000000000000000000000000000000000000000000000000081526004016134b590615704565b60405180910390fd5b8183886134cb91906144f3565b6134d591906154b6565b94505050505092915050565b613564846323b872dd60e01b85858560405160240161350293929190615724565b604051602081830303815290604052907bffffffffffffffffffffffffffffffffffffffffffffffffffffffff19166020820180517bffffffffffffffffffffffffffffffffffffffffffffffffffffffff8381831617835250505050613636565b50505050565b60008082846135799190615768565b9050600081600f0b13156135a65780600a613594919061561a565b8561359f91906154b6565b94506135f9565b600081600f0b12156135f857807fffffffffffffffffffffffffffffffffffffffffffffffffffffffffffffffff6135de91906157d0565b600a6135ea919061561a565b856135f591906144f3565b94505b5b849150509392505050565b600061360f336112db565b1561362357601436033560601c9050613632565b61362b6136fd565b9050613633565b5b90565b6000613698826040518060400160405280602081526020017f5361666545524332303a206c6f772d6c6576656c2063616c6c206661696c65648152508573ffffffffffffffffffffffffffffffffffffffff166137059092919063ffffffff16565b90506000815111156136f857808060200190518101906136b89190613f87565b6136f7576040517f08c379a00000000000000000000000000000000000000000000000000000000081526004016136ee9061587f565b60405180910390fd5b5b505050565b600033905090565b6060613714848460008561371d565b90509392505050565b606082471015613762576040517f08c379a000000000000000000000000000000000000000000000000000000000815260040161375990615911565b60405180910390fd5b61376b85613831565b6137aa576040517f08c379a00000000000000000000000000000000000000000000000000000000081526004016137a19061597d565b60405180910390fd5b6000808673ffffffffffffffffffffffffffffffffffffffff1685876040516137d391906159e4565b60006040518083038185875af1925050503d8060008114613810576040519150601f19603f3d011682016040523d82523d6000602084013e613815565b606091505b5091509150613825828286613844565b92505050949350505050565b600080823b905060008111915050919050565b60608315613854578290506138a4565b6000835111156138675782518084602001fd5b816040517f08c379a000000000000000000000000000000000000000000000000000000000815260040161389b9190614460565b60405180910390fd5b9392505050565b604051806040016040528060008152602001600081525090565b6000604051905090565b600080fd5b600080fd5b600073ffffffffffffffffffffffffffffffffffffffff82169050919050565b6000613904826138d9565b9050919050565b613914816138f9565b811461391f57600080fd5b50565b6000813590506139318161390b565b92915050565b60006020828403121561394d5761394c6138cf565b5b600061395b84828501613922565b91505092915050565b6000819050919050565b61397781613964565b82525050565b6000602082019050613992600083018461396e565b92915050565b600080fd5b6000601f19601f8301169050919050565b7f4e487b7100000000000000000000000000000000000000000000000000000000600052604160045260246000fd5b6139e68261399d565b810181811067ffffffffffffffff82111715613a0557613a046139ae565b5b80604052505050565b6000613a186138c5565b9050613a2482826139dd565b919050565b600067ffffffffffffffff821115613a4457613a436139ae565b5b602082029050602081019050919050565b600080fd5b600080fd5b600067ffffffffffffffff821115613a7a57613a796139ae565b5b613a838261399d565b9050602081019050919050565b82818337600083830152505050565b6000613ab2613aad84613a5f565b613a0e565b905082815260208101848484011115613ace57613acd613a5a565b5b613ad9848285613a90565b509392505050565b600082601f830112613af657613af5613998565b5b8135613b06848260208601613a9f565b91505092915050565b6000613b22613b1d84613a29565b613a0e565b90508083825260208201905060208402830185811115613b4557613b44613a55565b5b835b81811015613b8c57803567ffffffffffffffff811115613b6a57613b69613998565b5b808601613b778982613ae1565b85526020850194505050602081019050613b47565b5050509392505050565b600082601f830112613bab57613baa613998565b5b8135613bbb848260208601613b0f565b91505092915050565b600067ffffffffffffffff821115613bdf57613bde6139ae565b5b602082029050602081019050919050565b613bf981613964565b8114613c0457600080fd5b50565b600081359050613c1681613bf0565b92915050565b6000613c2f613c2a84613bc4565b613a0e565b90508083825260208201905060208402830185811115613c5257613c51613a55565b5b835b81811015613c7b5780613c678882613c07565b845260208401935050602081019050613c54565b5050509392505050565b600082601f830112613c9a57613c99613998565b5b8135613caa848260208601613c1c565b91505092915050565b60008060008060808587031215613ccd57613ccc6138cf565b5b6000613cdb87828801613922565b945050602085013567ffffffffffffffff811115613cfc57613cfb6138d4565b5b613d0887828801613b96565b935050604085013567ffffffffffffffff811115613d2957613d286138d4565b5b613d3587828801613c85565b9250506060613d4687828801613922565b91505092959194509250565b600060208284031215613d6857613d676138cf565b5b6000613d7684828501613c07565b91505092915050565b60008060408385031215613d9657613d956138cf565b5b6000613da485828601613922565b9250506020613db585828601613c07565b9150509250929050565b60008115159050919050565b613dd481613dbf565b82525050565b6000602082019050613def6000830184613dcb565b92915050565b613dfe816138f9565b82525050565b6000602082019050613e196000830184613df5565b92915050565b60008060408385031215613e3657613e356138cf565b5b6000613e4485828601613922565b9250506020613e5585828601613922565b9150509250929050565b6000604082019050613e74600083018561396e565b613e81602083018461396e565b9392505050565b6000819050919050565b6000613ead613ea8613ea3846138d9565b613e88565b6138d9565b9050919050565b6000613ebf82613e92565b9050919050565b6000613ed182613eb4565b9050919050565b613ee181613ec6565b82525050565b6000602082019050613efc6000830184613ed8565b92915050565b613f0b81613964565b82525050565b604082016000820151613f276000850182613f02565b506020820151613f3a6020850182613f02565b50505050565b6000604082019050613f556000830184613f11565b92915050565b613f6481613dbf565b8114613f6f57600080fd5b50565b600081519050613f8181613f5b565b92915050565b600060208284031215613f9d57613f9c6138cf565b5b6000613fab84828501613f72565b91505092915050565b600082825260208201905092915050565b7f4f6e6c79206d616e6167657220616e64206f776e65722063616e2063616c6c2060008201527f746869732066756e6374696f6e00000000000000000000000000000000000000602082015250565b6000614021602d83613fb4565b915061402c82613fc5565b604082019050919050565b6000602082019050818103600083015261405081614014565b9050919050565b7f53706865726f6e537562736372697074696f6e5061796d656e74733a20496e7660008201527f616c696420757365722061646472657373000000000000000000000000000000602082015250565b60006140b3603183613fb4565b91506140be82614057565b604082019050919050565b600060208201905081810360008301526140e2816140a6565b9050919050565b7f53706865726f6e537562736372697074696f6e5061796d656e74733a20496e7660008201527f616c696420746f6b656e20616464726573730000000000000000000000000000602082015250565b6000614145603283613fb4565b9150614150826140e9565b604082019050919050565b6000602082019050818103600083015261417481614138565b9050919050565b7f53706865726f6e537562736372697074696f6e5061796d656e74733a204e6f2060008201527f706172616d730000000000000000000000000000000000000000000000000000602082015250565b60006141d7602683613fb4565b91506141e28261417b565b604082019050919050565b60006020820190508181036000830152614206816141ca565b9050919050565b7f53706865726f6e537562736372697074696f6e5061796d656e74733a204e6f2060008201527f76616c7565730000000000000000000000000000000000000000000000000000602082015250565b6000614269602683613fb4565b91506142748261420d565b604082019050919050565b600060208201905081810360008301526142988161425c565b9050919050565b7f53706865726f6e537562736372697074696f6e5061796d656e74733a20756e6560008201527f7175616c206c656e677468206f66206172726179000000000000000000000000602082015250565b60006142fb603483613fb4565b91506143068261429f565b604082019050919050565b6000602082019050818103600083015261432a816142ee565b9050919050565b7f53706865726f6e537562736372697074696f6e5061796d656e74733a20546f6b60008201527f656e206e6f742061636365707465640000000000000000000000000000000000602082015250565b600061438d602f83613fb4565b915061439882614331565b604082019050919050565b600060208201905081810360008301526143bc81614380565b9050919050565b7f4e487b7100000000000000000000000000000000000000000000000000000000600052603260045260246000fd5b600081519050919050565b60005b8381101561441b578082015181840152602081019050614400565b60008484015250505050565b6000614432826143f2565b61443c8185613fb4565b935061444c8185602086016143fd565b6144558161399d565b840191505092915050565b6000602082019050818103600083015261447a8184614427565b905092915050565b60008151905061449181613bf0565b92915050565b6000602082840312156144ad576144ac6138cf565b5b60006144bb84828501614482565b91505092915050565b7f4e487b7100000000000000000000000000000000000000000000000000000000600052601160045260246000fd5b60006144fe82613964565b915061450983613964565b925082820261451781613964565b9150828204841483151761452e5761452d6144c4565b5b5092915050565b600061454082613964565b915061454b83613964565b9250828201905080821115614563576145626144c4565b5b92915050565b600061457482613964565b915061457f83613964565b9250828203905081811115614597576145966144c4565b5b92915050565b7f53706865726f6e537562736372697074696f6e5061796d656e74733a2042616c60008201527f616e6365206d757374206265206c657373207468616e206f7220657175616c2060208201527f746f20616d6f756e742063686172676564000000000000000000000000000000604082015250565b600061461f605183613fb4565b915061462a8261459d565b606082019050919050565b6000602082019050818103600083015261464e81614612565b9050919050565b7f53706865726f6e537562736372697074696f6e5061796d656e74733a2074696d60008201527f657374616d7020676170206d7573742062652067726561746572207468616e2060208201527f3000000000000000000000000000000000000000000000000000000000000000604082015250565b60006146d7604183613fb4565b91506146e282614655565b606082019050919050565b60006020820190508181036000830152614706816146ca565b9050919050565b7f5265656e7472616e637947756172643a207265656e7472616e742063616c6c00600082015250565b6000614743601f83613fb4565b915061474e8261470d565b602082019050919050565b6000602082019050818103600083015261477281614736565b9050919050565b7f5769746864726177616c20697320706175736564000000000000000000000000600082015250565b60006147af601483613fb4565b91506147ba82614779565b602082019050919050565b600060208201905081810360008301526147de816147a2565b9050919050565b7f53706865726f6e537562736372697074696f6e5061796d656e74733a20416d6f60008201527f756e74206d7573742062652067726561746572207468616e207a65726f000000602082015250565b6000614841603d83613fb4565b915061484c826147e5565b604082019050919050565b6000602082019050818103600083015261487081614834565b9050919050565b7f53706865726f6e537562736372697074696f6e5061796d656e74733a20416d6f60008201527f756e74206d757374206265206c657373207468616e206f7220657175616c207460208201527f6f20757365722062616c616e6365000000000000000000000000000000000000604082015250565b60006148f9604e83613fb4565b915061490482614877565b606082019050919050565b60006020820190508181036000830152614928816148ec565b9050919050565b60006040820190506149446000830185613df5565b6149516020830184613df5565b9392505050565b7f53706865726f6e5061796d656e74733a20496e73756666696369656e7420616c60008201527f6c6f77616e636500000000000000000000000000000000000000000000000000602082015250565b60006149b4602783613fb4565b91506149bf82614958565b604082019050919050565b600060208201905081810360008301526149e3816149a7565b9050919050565b7f4f6e6c7920636f6d70616e7920616e64206d616e61676572732063616e20636160008201527f6c6c20746869732066756e6374696f6e00000000000000000000000000000000602082015250565b6000614a46603083613fb4565b9150614a51826149ea565b604082019050919050565b60006020820190508181036000830152614a7581614a39565b9050919050565b7f53706865726f6e537562736372697074696f6e5061796d656e74733a20496e7660008201527f616c6964206164647265737320666f7220636f6d70616e790000000000000000602082015250565b6000614ad8603883613fb4565b9150614ae382614a7c565b604082019050919050565b60006020820190508181036000830152614b0781614acb565b9050919050565b7f4465706f73697420697320706175736564000000000000000000000000000000600082015250565b6000614b44601183613fb4565b9150614b4f82614b0e565b602082019050919050565b60006020820190508181036000830152614b7381614b37565b9050919050565b7f53706865726f6e537562736372697074696f6e5061796d656e74733a2044657060008201527f6f736974206d7573742062652067726561746572207468616e207a65726f0000602082015250565b6000614bd6603e83613fb4565b9150614be182614b7a565b604082019050919050565b60006020820190508181036000830152614c0581614bc9565b9050919050565b7f53706865726f6e537562736372697074696f6e5061796d656e74733a2064617460008201527f6120636f6e747261637420616464726573732063616e206e6f74206265207a6560208201527f726f206164647265737300000000000000000000000000000000000000000000604082015250565b6000614c8e604a83613fb4565b9150614c9982614c0c565b606082019050919050565b60006020820190508181036000830152614cbd81614c81565b9050919050565b7f4f6e6c792063616c6c61626c6520627920636f6d70616e790000000000000000600082015250565b6000614cfa601883613fb4565b9150614d0582614cc4565b602082019050919050565b60006020820190508181036000830152614d2981614ced565b9050919050565b7f53706865726f6e5061796d656e74733a20416d6f756e74206d7573742062652060008201527f67726561746572207468616e207a65726f000000000000000000000000000000602082015250565b6000614d8c603183613fb4565b9150614d9782614d30565b604082019050919050565b60006020820190508181036000830152614dbb81614d7f565b9050919050565b7f53706865726f6e537562736372697074696f6e5061796d656e74733a2042616c60008201527f616e6365206d757374206265206c657373207468616e206f7220657175616c2060208201527f746f20636f6d70616e792062616c616e63650000000000000000000000000000604082015250565b6000614e44605283613fb4565b9150614e4f82614dc2565b606082019050919050565b60006020820190508181036000830152614e7381614e37565b9050919050565b7f466f727761726465722063616e6e6f74206265207a65726f2061646472657373600082015250565b6000614eb0602083613fb4565b9150614ebb82614e7a565b602082019050919050565b60006020820190508181036000830152614edf81614ea3565b9050919050565b7f4f6e6c79206d616e616765722063616e2063616c6c20746869732066756e637460008201527f696f6e0000000000000000000000000000000000000000000000000000000000602082015250565b6000614f42602383613fb4565b9150614f4d82614ee6565b604082019050919050565b60006020820190508181036000830152614f7181614f35565b9050919050565b50565b6000614f88600083613fb4565b9150614f9382614f78565b600082019050919050565b60006020820190508181036000830152614fb781614f7b565b9050919050565b7f53706865726f6e537562736372697074696f6e5061796d656e74733a20496e7660008201527f616c6964206164647265737320666f7220747265617375727900000000000000602082015250565b600061501a603983613fb4565b915061502582614fbe565b604082019050919050565b600060208201905081810360008301526150498161500d565b9050919050565b600061506361505e84613a5f565b613a0e565b90508281526020810184848401111561507f5761507e613a5a565b5b61508a8482856143fd565b509392505050565b600082601f8301126150a7576150a6613998565b5b81516150b7848260208601615050565b91505092915050565b60006fffffffffffffffffffffffffffffffff82169050919050565b6150e5816150c0565b81146150f057600080fd5b50565b600081519050615102816150dc565b92915050565b6000815190506151178161390b565b92915050565b600080600080600080600060e0888a03121561513c5761513b6138cf565b5b600088015167ffffffffffffffff81111561515a576151596138d4565b5b6151668a828b01615092565b97505060206151778a828b016150f3565b96505060406151888a828b01615108565b95505060606151998a828b01613f72565b94505060806151aa8a828b01613f72565b93505060a06151bb8a828b01615108565b92505060c06151cc8a828b016150f3565b91505092959891949750929550565b7f546f6b656e206973206e6f742061636365707465640000000000000000000000600082015250565b6000615211601583613fb4565b915061521c826151db565b602082019050919050565b6000602082019050818103600083015261524081615204565b9050919050565b600069ffffffffffffffffffff82169050919050565b61526681615247565b811461527157600080fd5b50565b6000815190506152838161525d565b92915050565b6000819050919050565b61529c81615289565b81146152a757600080fd5b50565b6000815190506152b981615293565b92915050565b600080600080600060a086880312156152db576152da6138cf565b5b60006152e988828901615274565b95505060206152fa888289016152aa565b945050604061530b88828901614482565b935050606061531c88828901614482565b925050608061532d88828901615274565b9150509295509295909350565b60008060408385031215615351576153506138cf565b5b600061535f858286016150f3565b9250506020615370858286016150f3565b9150509250929050565b6000602082840312156153905761538f6138cf565b5b600061539e84828501615108565b91505092915050565b60006153ba6153b584613bc4565b613a0e565b905080838252602082019050602084028301858111156153dd576153dc613a55565b5b835b8181101561540657806153f28882614482565b8452602084019350506020810190506153df565b5050509392505050565b600082601f83011261542557615424613998565b5b81516154358482602086016153a7565b91505092915050565b600060208284031215615454576154536138cf565b5b600082015167ffffffffffffffff811115615472576154716138d4565b5b61547e84828501615410565b91505092915050565b7f4e487b7100000000000000000000000000000000000000000000000000000000600052601260045260246000fd5b60006154c182613964565b91506154cc83613964565b9250826154dc576154db615487565b5b828204905092915050565b60008160011c9050919050565b6000808291508390505b600185111561553e5780860481111561551a576155196144c4565b5b60018516156155295780820291505b8081029050615537856154e7565b94506154fe565b94509492505050565b6000826155575760019050615613565b816155655760009050615613565b816001811461557b5760028114615585576155b4565b6001915050615613565b60ff841115615597576155966144c4565b5b8360020a9150848211156155ae576155ad6144c4565b5b50615613565b5060208310610133831016604e8410600b84101617156155e95782820a9050838111156155e4576155e36144c4565b5b615613565b6155f684848460016154f4565b9250905081840481111561560d5761560c6144c4565b5b81810290505b9392505050565b600061562582613964565b9150615630836150c0565b925061565d7fffffffffffffffffffffffffffffffffffffffffffffffffffffffffffffffff8484615547565b905092915050565b60006020828403121561567b5761567a6138cf565b5b6000615689848285016150f3565b91505092915050565b7f53706865726f6e537562736372697074696f6e5061796d656e74733a20756e6460008201527f65726c79696e67207072696365206e6f74207570646174656400000000000000602082015250565b60006156ee603983613fb4565b91506156f982615692565b604082019050919050565b6000602082019050818103600083015261571d816156e1565b9050919050565b60006060820190506157396000830186613df5565b6157466020830185613df5565b615753604083018461396e565b949350505050565b600081600f0b9050919050565b60006157738261575b565b915061577e8361575b565b925082820390506f7fffffffffffffffffffffffffffffff81137fffffffffffffffffffffffffffffffff80000000000000000000000000000000821217156157ca576157c96144c4565b5b92915050565b60006157db8261575b565b91506157e68361575b565b92508282026157f48161575b565b9150808214615806576158056144c4565b5b5092915050565b7f5361666545524332303a204552433230206f7065726174696f6e20646964206e60008201527f6f74207375636365656400000000000000000000000000000000000000000000602082015250565b6000615869602a83613fb4565b91506158748261580d565b604082019050919050565b600060208201905081810360008301526158988161585c565b9050919050565b7f416464726573733a20696e73756666696369656e742062616c616e636520666f60008201527f722063616c6c0000000000000000000000000000000000000000000000000000602082015250565b60006158fb602683613fb4565b91506159068261589f565b604082019050919050565b6000602082019050818103600083015261592a816158ee565b9050919050565b7f416464726573733a2063616c6c20746f206e6f6e2d636f6e7472616374000000600082015250565b6000615967601d83613fb4565b915061597282615931565b602082019050919050565b600060208201905081810360008301526159968161595a565b9050919050565b600081519050919050565b600081905092915050565b60006159be8261599d565b6159c881856159a8565b93506159d88185602086016143fd565b80840191505092915050565b60006159f082846159b3565b91508190509291505056fea264697066735822122070fc80c2fc67be543bfb455c6d2cf99749a33a1b521e31292feaa26ca976f34a64736f6c63430008130033",
  "devdoc": {
    "kind": "dev",
    "methods": {
      "chargeUser(address,string[],uint256[],address)": {
        "params": {
          "_parameters": "list for subscription payment",
          "_token": "address of token contract",
          "_user": "user address",
          "_values": "value list for subscription payment"
        }
      },
      "companyWithdraw(address,uint256)": {
        "params": {
          "_amount": "amount of tokens to be withdrawn from treasury",
          "_token": "address of erc20 token"
        }
      },
      "getUnderlyingPrice(address)": {
        "params": {
          "t": "underlying token address"
        },
        "returns": {
          "timestamp": "of underlying token in usd",
          "underlyingPrice": "of underlying token in usd"
        }
      },
      "getUserData(address,address)": {
        "params": {
          "_token": "address of deposit ERC20 token",
          "_user": "address of the user"
        }
      },
      "setCompany(address)": {
        "params": {
          "_company": "company address"
        }
      },
      "setTreasury(address)": {
        "params": {
          "_treasury": "treasury address"
        }
      },
      "updateDataContract(address)": {
        "params": {
          "d": "data contract address"
        }
      },
      "userDeposit(address,uint256)": {
        "params": {
          "_amount": "amount of tokens to deposit to treasury",
          "_token": "address of erc20 token"
        }
      },
      "userWithdraw(address,uint256)": {
        "params": {
          "_amount": "amount of tokens to be withdrawn from treasury",
          "_token": "address of erc20 token"
        }
      }
    },
    "version": 1
  },
  "userdoc": {
    "kind": "user",
    "methods": {
      "approveSetCompany(address)": {
        "notice": "approve pending company address"
      },
      "changeDepositStatus()": {
        "notice": "change status for user deposit. On or off"
      },
      "changeWithdrawalStatus()": {
        "notice": "change status for user deposit. On or off"
      },
      "chargeUser(address,string[],uint256[],address)": {
        "notice": "charge user for one time charges"
      },
      "companyWithdraw(address,uint256)": {
        "notice": "company token withdrawal of one of the accepted erc20 from the treasury"
      },
      "getTotalCharges(address)": {
        "notice": "Return total charges of all users for a token"
      },
      "getTotalDeposit(address)": {
        "notice": "Return total deposits of all users for a token"
      },
      "getTotalWithdraws(address)": {
        "notice": "Return total withdrawals of all users for a token"
      },
      "getUnderlyingPrice(address)": {
        "notice": "get price of underlying token"
      },
      "getUserData(address,address)": {
        "notice": "Return user data"
      },
      "setCompany(address)": {
        "notice": "set address of the company"
      },
      "setTreasury(address)": {
        "notice": "set address of the treasury"
      },
      "updateDataContract(address)": {
        "notice": "update subscriptionDataContract"
      },
      "userDeposit(address,uint256)": {
        "notice": "deposit one of the accepted erc20 to the treasury"
      },
      "userWithdraw(address,uint256)": {
        "notice": "user token withdrawal one of the accepted erc20 to the treasury"
      }
    },
    "version": 1
  },
  "storageLayout": {
    "storage": [
      {
        "astId": 160,
        "contract": "contracts/SubscriptionDePay.sol:SubscriptionDePay",
        "label": "_status",
        "offset": 0,
        "slot": "0",
        "type": "t_uint256"
      },
      {
        "astId": 6995,
        "contract": "contracts/SubscriptionDePay.sol:SubscriptionDePay",
        "label": "_trustedForwarder",
        "offset": 0,
        "slot": "1",
        "type": "t_address"
      },
      {
        "astId": 7002,
        "contract": "contracts/SubscriptionDePay.sol:SubscriptionDePay",
        "label": "subscriptionData",
        "offset": 0,
        "slot": "2",
        "type": "t_contract(ISubscriptionData)5063"
      },
      {
        "astId": 3063,
        "contract": "contracts/SubscriptionDePay.sol:SubscriptionDePay",
        "label": "treasury",
        "offset": 0,
        "slot": "3",
        "type": "t_address"
      },
      {
        "astId": 3065,
        "contract": "contracts/SubscriptionDePay.sol:SubscriptionDePay",
        "label": "company",
        "offset": 0,
        "slot": "4",
        "type": "t_address"
      },
      {
        "astId": 3067,
        "contract": "contracts/SubscriptionDePay.sol:SubscriptionDePay",
        "label": "pendingCompany",
        "offset": 0,
        "slot": "5",
        "type": "t_address"
      },
      {
        "astId": 3079,
        "contract": "contracts/SubscriptionDePay.sol:SubscriptionDePay",
        "label": "userData",
        "offset": 0,
        "slot": "6",
        "type": "t_mapping(t_address,t_mapping(t_address,t_struct(UserData)3072_storage))"
      },
      {
        "astId": 3081,
        "contract": "contracts/SubscriptionDePay.sol:SubscriptionDePay",
        "label": "timeStampGap",
        "offset": 0,
        "slot": "7",
        "type": "t_uint256"
      },
      {
        "astId": 3083,
        "contract": "contracts/SubscriptionDePay.sol:SubscriptionDePay",
        "label": "pauseDeposit",
        "offset": 0,
        "slot": "8",
        "type": "t_bool"
      },
      {
        "astId": 3085,
        "contract": "contracts/SubscriptionDePay.sol:SubscriptionDePay",
        "label": "pauseWithdrawal",
        "offset": 1,
        "slot": "8",
        "type": "t_bool"
      },
      {
        "astId": 3099,
        "contract": "contracts/SubscriptionDePay.sol:SubscriptionDePay",
        "label": "totalDeposit",
        "offset": 0,
        "slot": "9",
        "type": "t_mapping(t_address,t_uint256)"
      },
      {
        "astId": 3103,
        "contract": "contracts/SubscriptionDePay.sol:SubscriptionDePay",
        "label": "totalCharges",
        "offset": 0,
        "slot": "10",
        "type": "t_mapping(t_address,t_uint256)"
      },
      {
        "astId": 3107,
        "contract": "contracts/SubscriptionDePay.sol:SubscriptionDePay",
        "label": "totalWithdraws",
        "offset": 0,
        "slot": "11",
        "type": "t_mapping(t_address,t_uint256)"
      },
      {
        "astId": 3111,
        "contract": "contracts/SubscriptionDePay.sol:SubscriptionDePay",
        "label": "companyRevenue",
        "offset": 0,
        "slot": "12",
        "type": "t_mapping(t_address,t_uint256)"
      }
    ],
    "types": {
      "t_address": {
        "encoding": "inplace",
        "label": "address",
        "numberOfBytes": "20"
      },
      "t_bool": {
        "encoding": "inplace",
        "label": "bool",
        "numberOfBytes": "1"
      },
      "t_contract(ISubscriptionData)5063": {
        "encoding": "inplace",
        "label": "contract ISubscriptionData",
        "numberOfBytes": "20"
      },
      "t_mapping(t_address,t_mapping(t_address,t_struct(UserData)3072_storage))": {
        "encoding": "mapping",
        "key": "t_address",
        "label": "mapping(address => mapping(address => struct SubscriptionDePay.UserData))",
        "numberOfBytes": "32",
        "value": "t_mapping(t_address,t_struct(UserData)3072_storage)"
      },
      "t_mapping(t_address,t_struct(UserData)3072_storage)": {
        "encoding": "mapping",
        "key": "t_address",
        "label": "mapping(address => struct SubscriptionDePay.UserData)",
        "numberOfBytes": "32",
        "value": "t_struct(UserData)3072_storage"
      },
      "t_mapping(t_address,t_uint256)": {
        "encoding": "mapping",
        "key": "t_address",
        "label": "mapping(address => uint256)",
        "numberOfBytes": "32",
        "value": "t_uint256"
      },
      "t_struct(UserData)3072_storage": {
        "encoding": "inplace",
        "label": "struct SubscriptionDePay.UserData",
        "members": [
          {
            "astId": 3069,
            "contract": "contracts/SubscriptionDePay.sol:SubscriptionDePay",
            "label": "deposit",
            "offset": 0,
            "slot": "0",
            "type": "t_uint256"
          },
          {
            "astId": 3071,
            "contract": "contracts/SubscriptionDePay.sol:SubscriptionDePay",
            "label": "balance",
            "offset": 0,
            "slot": "1",
            "type": "t_uint256"
          }
        ],
        "numberOfBytes": "64"
      },
      "t_uint256": {
        "encoding": "inplace",
        "label": "uint256",
        "numberOfBytes": "32"
      }
    }
  }
}